:100000000C9464000C948C000C948C000C948C0068
:100010000C948C000C948C000C948C000C948C0030
:100020000C948C000C948C000C948C000C948C0020
:100030000C948C000C948C000C948C000C948C0010
:100040000C94FC030C948C000C9460060C94E30656
:100050000C948C000C948C000C948C000C948C00F0
:100060000C947F020C948C000000000024002700F8
:100070002A0000000000250028002B0000000000DE
:1000800023002600290004040404040404040202DA
:100090000202020203030303030301020408102007
:1000A0004080010204081020010204081020000012
:1000B0000007000201000003040600000000000029
:1000C00000007A01D803960611241FBECFEFD8E0B6
:1000D000DEBFCDBF11E0A0E0B1E0E4E6FFE002C08A
:1000E00005900D92A233B107D9F712E0A2E3B1E077
:1000F00001C01D92A33EB107E1F710E0C8ECD0E0CB
:1001000004C02297FE010E94AC07C23CD107C9F788
:100110000E9409070C94B0070C9400001F93CF9322
:10012000DF93809146018A3009F054C080914901E3
:10013000883701F1893730F4843789F0853709F041
:1001400049C008C08D3831F18E3871F18C3809F012
:1001500041C017C086E492E060E071E004C086E42C
:1001600092E067E071E00E947E0786E492E00E94E0
:10017000420730C080914A0160914B010E94810783
:1001800029C080914A01E82FF0E0EE5CFE4F10821A
:1001900061E01EC080914A01E82FF0E0EE5CFE4F66
:1001A00091E0908360E014C010914A01C12FD0E02B
:1001B000812F61E00E948D0460E0FE01EE5CFE4F45
:1001C0008081882309F461E0CE5CDE4F6883812F53
:1001D0000E94CC04DF91CF911F910895CF93DF93BC
:1001E0001CC080916601C82FD0E086E492E00E9496
:1001F000D005CA5BDE4F888390916601E92FF0E05D
:10020000EA5BFE4F80818E3729F4109266010E94CE
:100210008E0009C09F5F9093660186E492E00E9481
:10022000B405892BF1F6DF91CF9108951F93CF93F9
:10023000DF9386E492E040E052EC61E070E026E07B
:100240000E945005CCEED3E0CE018C5E182F87E6DD
:1002500091E0BE010E94430190E08F3F09F091E0E0
:10026000FE01EA5BF2409083992321F0812F61E047
:100270000E948D04219694E0C030D90729F7DF91C0
:10028000CF911F910895F999FECF72BD61BDF89A83
:1002900080B508952091890130E080918801281B64
:1002A0003109C90108954091880180918901481759
:1002B00018F02FEF3FEF0AC0E42FF0E0E859FE4FAF
:1002C0008081282F30E04F5F40938801C901089555
:1002D000E091880180918901E81718F0EFEFFFEFB6
:1002E00006C0F0E0E859FE4F8081E82FF0E0CF0132
:1002F000089508951092B0011092AF0188EE93E036
:10030000A0E0B0E08093B1019093B201A093B3015B
:10031000B093B40185E191E09093AE018093AD017B
:100320000895CF92DF92EF92FF920F931F93CF9396
:10033000DF937C016B018A018091AC018823A1F0DD
:10034000C0E0D0E00DC0D701ED91FC91D601AC0F1B
:10035000BD1F0190F081E02DC7016C910995219698
:10036000C017D10780F304C0CB01642F0E94F201B3
:10037000C801DF91CF911F910F91FF90EF90DF9017
:10038000CF900895DF93CF930F92CDB7DEB7FC01E6
:1003900069838091AC018823C9F08091AB018032E0
:1003A00038F081E090E09383828320E030E015C054
:1003B0008091AA01E82FF0E0E657FE4F99819083E3
:1003C0008F5F8093AA018093AB0105C0CE01019697
:1003D00061E00E94F20121E030E0C9010F90CF916D
:1003E000DF910895482F613210F081E008958091E7
:1003F000B901843011F082E0089560930402A3EE05
:10040000B1E0842F9C01F90102C081918D938E2F60
:10041000841B8617D0F380E008950F931F930CEB95
:1004200010E0F80110821092B90181E08093BB01C5
:100430001092BC0182E161E00E94CC0483E161E0A2
:100440000E94CC04E9EBF0E080818E7F8083808184
:100450008D7F808388E48093B80085E4F8018083F1
:100460001F910F910895882349F01092270210924E
:1004700028021092290210922A0213C080912702AA
:1004800090912802A0912902B0912A020196A11D03
:10049000B11D8093270290932802A0932902B09364
:1004A0002A028091270290912802A0912902B091FE
:1004B0002A02805A9648A140B04010F480E0089586
:1004C00010922702109228021092290210922A02FA
:1004D0000E940D0281E0089585ED8093BC0081E0CB
:1004E0000E94330205C080E00E943302882331F469
:1004F0008091BC0084FDF7CF1092B90108951F923E
:100500000F920FB60F9211242F933F934F935F9347
:100510006F937F938F939F93AF93BF93EF93FF93CB
:100520008091B90090E0887F90708036910509F441
:10053000C7C081369105CCF58832910509F47BC09E
:1005400089329105B4F48031910509F46FC081318D
:1005500091053CF4009709F416C1089709F017C1FA
:1005600065C08831910509F466C0809709F00FC114
:1005700076C08034910509F488C08134910544F433
:100580008033910509F46DC0C89709F000C16DC0B2
:100590008035910509F46DC08835910509F47AC05C
:1005A0008834910509F0F3C0F0C08839910509F449
:1005B000E0C089399105ECF48837910509F480C0D1
:1005C000893791054CF48836910509F479C0803754
:1005D000910509F0DCC074C08838910509F4C9C0E0
:1005E0008039910509F472C08038910509F0CFC0B7
:1005F0006DC0803B910509F494C0813B91054CF49A
:10060000803A910509F474C0883A910509F0BFC099
:1006100088C0803C910509F4B0C0883C910509F47C
:10062000ACC0883B910509F0B2C090C08091BA017E
:100630008093BB0012C09091E1018091E201981774
:10064000A8F59091E101E92FF0E0EF53FE4F808192
:100650008093BB009F5F9093E10185EC8BC080E2AB
:1006600001C080E38093260290C088E38093260235
:1006700084C08091E1019091BB00E82FF0E0EF533E
:10068000FE4F90838F5F8093E1019091E101809113
:10069000E2016CC08091E1019091BB00E82FF0E095
:1006A000EF53FE4F90838F5F8093E1018091BB01F8
:1006B000882309F06AC081E08093BC0184EA5EC0AF
:1006C00083E08093B90110922502C7CF8091250263
:1006D000803208F04EC0809125029091BB00E82F37
:1006E000F0E0EB5FFD4F90838F5F80932502B5CFE5
:1006F00080912502803230F4E0912502F0E0EB5F3A
:10070000FD4F10820E946C0260912502E091BF01B2
:10071000F091C00185E092E070E009951092250209
:100720002CC084E08093B90110920302109204025D
:10073000E091BD01F091BE010995809104028823EA
:1007400029F481E0809304021092E3019091030266
:10075000E92FF0E0ED51FE4F80818093BB009F5F59
:10076000909303029091030280910402981708F479
:1007700074CF85E88093BC000AC085EC8093BC00F0
:100780001092B90104C0109226020E946C02FF91DF
:10079000EF91BF91AF919F918F917F916F915F91F9
:1007A0004F913F912F910F900FBE0F901F90189572
:1007B0008BE292E042E350E060E070E00E94E903E7
:1007C00084E392E040E050E060E070E00E94E903E2
:1007D00008950F931F938C01FC011082458356836B
:1007E000678370870E944404F80161837283838366
:1007F00094831F910F9108951F920F920FB60F923D
:1008000011242F933F938F939F93AF93BF93809126
:10081000410290914202A0914302B0914402309172
:1008200045020196A11DB11D232F2D5F2D3720F00C
:100830002D570196A11DB11D2093450280934102C1
:1008400090934202A0934302B093440280913D02F0
:1008500090913E02A0913F02B09140020196A11DED
:10086000B11D80933D0290933E02A0933F02B0934E
:100870004002BF91AF919F918F913F912F910F9027
:100880000FBE0F901F9018958FB7F89420914102DA
:100890003091420240914302509144028FBFB9010E
:1008A000CA010895789484B5826084BD84B581605E
:1008B00084BD85B5826085BD85B5816085BDEEE668
:1008C000F0E0808181608083E1E8F0E01082808147
:1008D00082608083808181608083E0E8F0E08081B5
:1008E00081608083E1EBF0E0808184608083E0EBD5
:1008F000F0E0808181608083EAE7F0E080818460BD
:100900008083808182608083808181608083808118
:10091000806880831092C1000895CF93DF93482FA1
:1009200050E0CA0186569F4FFC0134914A575F4FF1
:10093000FA018491882369F190E0880F991FFC01E6
:10094000E859FF4FA591B491FC01EE58FF4FC591B6
:10095000D491662351F42FB7F8948C91932F9095EE
:1009600089238C93888189230BC0623061F42FB76F
:10097000F8948C91932F909589238C938881832B65
:1009800088832FBF06C09FB7F8948C91832B8C93DC
:100990009FBFDF91CF910895482F50E0CA01825543
:1009A0009F4FFC012491CA0186569F4FFC019491F0
:1009B0004A575F4FFA013491332309F440C0222390
:1009C00051F1233071F0243028F42130A1F022308D
:1009D00011F514C02630B1F02730C1F02430D9F41D
:1009E00004C0809180008F7703C0809180008F7D4C
:1009F0008093800010C084B58F7702C084B58F7D4E
:100A000084BD09C08091B0008F7703C08091B00091
:100A10008F7D8093B000E32FF0E0EE0FFF1FEE58C4
:100A2000FF4FA591B4912FB7F894662321F48C91D0
:100A30009095892302C08C91892B8C932FBF0895A8
:100A4000DC015C968C915C97FD01E80FF11DE35A87
:100A5000FF4F20815C968C915C9790E001968F739C
:100A600090705C968C935C975696ED91FC9157979D
:100A700020835096ED91FC91519780818064808312
:100A80005B969C915B975C968C915C97981739F478
:100A90005296ED91FC91539780818F7D80830895CC
:100AA000DF92EF92FF920F931F93CF93DF93EC01AE
:100AB0007A018B01D22EE889F98982E08083403067
:100AC00081EE580780E0680780E07807A1F060E0D9
:100AD00079E08DE390E0A80197010E9488072150FA
:100AE000304040405040569547953795279580E1D6
:100AF0002030380798F0E889F989108260E874E8B6
:100B00008EE190E0A80197010E94880721503040B3
:100B1000404050405695479537952795EC85FD8583
:100B20003083EE85FF852083188EEC89FD89D08285
:100B3000EA89FB89808180618083EA89FB898081E1
:100B400088608083EA89FB89808180688083EA8964
:100B5000FB8980818F7D8083DF91CF911F910F91E1
:100B6000FF90EF90DF900895FC01218D828D30E0A1
:100B7000205C3F4F281B31092F733070C901089545
:100B8000FC01918D828D981719F42FEF3FEF06C06D
:100B9000828DE80FF11D858D282F30E0C901089561
:100BA000DC0159969C9159975A968C915A979817AF
:100BB00019F42FEF3FEF10C05A968C915A97FD0110
:100BC000E80FF11D958D5A968C915A978F5F8F7310
:100BD0005A968C93292F30E0C9010895CF93DF9363
:100BE000EC01888D882361F419C08C9185FF0AC0BF
:100BF000E889F989808185FF05C0CE010E94200522
:100C0000AA89BB898C9185FD05C0E889F989808115
:100C100086FD04C00FB607FEE8CFF4CFDF91CF9179
:100C200008950F931F93CF93DF93EC01062F9B8DB5
:100C30008C8D981791F5E889F989808185FF2DC001
:100C4000EE89FF896083E889F989808180648083E7
:100C50001DC00FB607FC08C0E889F989808185FFAF
:100C600003C0CE010E9420058C8D181791F38B8D47
:100C7000FE01E80FF11DE35AFF4F00831B8FEA8945
:100C8000FB8980818062808381E0888F81E090E0B1
:100C9000DF91CF911F910F9108951B8D1F5F1F73DF
:100CA000E3CF89ED96E0892B51F080E090E0892B2D
:100CB00031F00E94D906882311F00E9400000895A7
:100CC0001F920F920FB60F9211242F938F939F9321
:100CD000EF93FF93E0915602F0915702808182FDDD
:100CE00016C0E0915C02F0915D02208190915F025C
:100CF0009F5F9F7380916002981771F0E0915F028F
:100D0000F0E0EA5BFD4F258F90935F0205C0E09114
:100D10005C02F0915D02E081FF91EF919F918F91D4
:100D20002F910F900FBE0F901F90189510924902AF
:100D30001092480288EE93E0A0E0B0E080934A026F
:100D400090934B02A0934C02B0934D0285E291E048
:100D5000909347028093460285EC90E09093530273
:100D60008093520284EC90E0909355028093540259
:100D700080EC90E0909357028093560281EC90E0D3
:100D8000909359028093580282EC90E090935B021A
:100D900080935A0286EC90E090935D0280935C020F
:100DA00010925F0210926002109261021092620231
:100DB000089586E492E00E94B40520E0892B09F0B2
:100DC00021E0822F08951F920F920FB60F921124E7
:100DD0002F933F934F935F936F937F938F939F9343
:100DE000AF93BF93EF93FF9386E492E00E942005B8
:100DF000FF91EF91BF91AF919F918F917F916F91F3
:100E00005F914F913F912F910F900FBE0F901F90C8
:100E10001895CF93DF930E9452040E941601C1E5FA
:100E2000D6E00E94EE002097E1F30E945106F9CF30
:100E3000CF92DF92EF92FF920F931F93CF93DF93A6
:100E40007C016B018A01C0E0D0E00FC0D6016D913A
:100E50006D01D701ED91FC910190F081E02DC7016A
:100E60000995C80FD91F015010400115110571F7E0
:100E7000CE01DF91CF911F910F91FF90EF90DF9006
:100E8000CF900895EF92FF920F931F938C01DC0196
:100E9000ED91FC910190F081E02D6DE009957C01D0
:100EA000D801ED91FC910190F081E02DC8016AE03C
:100EB00009959C012E0D3F1DC9011F910F91FF90B7
:100EC000EF900895CF93DF93EC016115710519F44C
:100ED00020E030E00FC0DB010D900020E9F7119712
:100EE000A61BB70BE881F9810280F381E02DAD01EB
:100EF00009959C01C901DF91CF9108950E94620775
:100F0000089570E0382F20E0622B732BCB010895F9
:100F1000A1E21A2EAA1BBB1BFD010DC0AA1FBB1FFD
:100F2000EE1FFF1FA217B307E407F50720F0A21B6F
:100F3000B30BE40BF50B661F771F881F991F1A94DC
:100F400069F760957095809590959B01AC01BD0106
:100F5000CF010895EE0FFF1F0590F491E02D099445
:040F6000F894FFCF33
:100F64005365656B7570007365656B20646F776E90
:100F74000000000000C20191014A01530168017997
:100F8400010000000011061807B405D005C005EEE5
:020F9400050056
:00000001FF
