:100000000C9464000C948C000C948C000C948C0068
:100010000C948C000C948C000C948C000C948C0030
:100020000C948C000C948C000C948C000C948C0020
:100030000C948C000C948C000C948C000C948C0010
:100040000C9448040C948C000C94AC060C942F0770
:100050000C948C000C948C000C948C000C948C00F0
:100060000C94CB020C948C000000000024002700AC
:100070002A0000000000250028002B0000000000DE
:1000800023002600290004040404040404040202DA
:100090000202020203030303030301020408102007
:1000A0004080010204081020010204081020000012
:1000B0000007000201000003040600000000000029
:1000C0000000C6012404E20611241FBECFEFD8E0D1
:1000D000DEBFCDBF11E0A0E0B1E0EAEEF1E102C089
:1000E00005900D92A434B107D9F712E0A4E4B1E071
:1000F00001C01D92A43FB107E1F710E0C8ECD0E0C9
:1001000004C02297FE010E94EF08C23CD107C9F744
:100110000E9455070C94F3080C940000FF920F9373
:100120001F93CF93DF93809158018A3009F086C0E6
:1001300080915B018837E9F0893730F4843791F09A
:10014000853709F07BC009C08D3889F18E3809F4F4
:100150004AC08C3809F072C013C087E592E060E0B5
:1001600071E004C087E592E067E071E00E94A208B8
:1001700061C080915C0160915D010E94A5085EC034
:1001800080915C01082F10E0F801EC5BFE4F1082BB
:1001900061E00E94180587E592E0B8014AE050E06E
:1001A0000E948F0887E592E061E070E017C08091BF
:1001B0005C01082F10E0F801EC5BFE4F91E09083AA
:1001C00060E00E94180587E592E0B8014AE050E03F
:1001D0000E948F0887E592E060E070E04AE050E01E
:1001E0000E948F0827C0F0905C01CF2DD0E08F2DAA
:1001F00061E00E94D90460E0FE01EC5BFE4F80816B
:10020000882309F461E08E010C5B1E4FF8016083C6
:100210008F2D0E94180587E592E0BE014AE050E06C
:100220000E948F0887E592E0F80160814AE050E083
:100230000E943D0887E592E00E948E07DF91CF91F2
:100240001F910F91FF9008951F9310E00EC087E556
:1002500092E00E941C06E12FF0E0E85AFE4F8083F6
:100260008E3711F40E948E001F5F87E592E00E9496
:100270000006892B61F71F910895FF920F931F933A
:10028000CF93DF9387E592E040E052EC61E070E0CD
:1002900026E00E949C0504E411E0CCEED3E084E16A
:1002A000F82EFC0E88E791E0BE010E948F0190E0DD
:1002B0008F3F09F091E0F8019083992319F18F2D78
:1002C00061E00E94D90487E592E061E171E00E945B
:1002D000A20887E592E06F2D4AE050E00E943D08B9
:1002E00087E592E06EE171E00E94A20887E592E066
:1002F000F80160814AE050E00E943D0887E592E005
:100300000E948E0721960F5F1F4FF4E0C030DF0779
:1003100031F6DF91CF911F910F91FF900895F999D8
:10032000FECF72BD61BDF89A80B5089520919A0103
:1003300030E080919901281B3109C901089540914D
:10034000990180919A01481718F02FEF3FEF0AC0EA
:10035000E42FF0E0E758FE4F8081282F30E04F5F18
:1003600040939901C9010895E091990180919A0102
:10037000E81718F0EFEFFFEF06C0F0E0E758FE4F88
:100380008081E82FF0E0CF01089508951092C10117
:100390001092C00188EE93E0A0E0B0E08093C2012B
:1003A0009093C301A093C401B093C50187E291E08B
:1003B0009093BF018093BE010895CF92DF92EF9298
:1003C000FF920F931F93CF93DF937C016B018A0100
:1003D0008091BD018823A1F0C0E0D0E00DC0D7011D
:1003E000ED91FC91D601AC0FBD1F0190F081E02D85
:1003F000C7016C9109952196C017D10780F304C0FD
:10040000CB01642F0E943E02C801DF91CF911F9162
:100410000F91FF90EF90DF90CF900895DF93CF93EF
:100420000F92CDB7DEB7FC0169838091BD018823AF
:10043000C9F08091BC01803238F081E090E0938374
:10044000828320E030E015C08091BB01E82FF0E00E
:10045000E556FE4F998190838F5F8093BB01809317
:10046000BC0105C0CE01019661E00E943E0221E080
:1004700030E0C9010F90CF91DF910895482F61328C
:1004800010F081E008958091CA01843011F082E07B
:10049000089560931502A4EFB1E0842F9C01F90147
:1004A00002C081918D938E2F841B8617D0F380E03C
:1004B00008950F931F930CEB10E0F8011082109237
:1004C000CA0181E08093CC011092CD0182E161E00C
:1004D0000E94180583E161E00E941805E9EBF0E055
:1004E00080818E7F808380818D7F808388E480936C
:1004F000B80085E4F80180831F910F910895882347
:1005000049F0109238021092390210923A02109279
:100510003B0213C08091380290913902A0913A02B7
:10052000B0913B020196A11DB11D809338029093BA
:100530003902A0933A02B0933B0280913802909125
:100540003902A0913A02B0913B02805A9648A140EC
:10055000B04010F480E008951092380210923902F1
:1005600010923A0210923B020E94590281E00895D3
:1005700085ED8093BC0081E00E947F0205C080E091
:100580000E947F02882331F48091BC0084FDF7CF64
:100590001092CA0108951F920F920FB60F92112464
:1005A0002F933F934F935F936F937F938F939F937B
:1005B000AF93BF93EF93FF938091B90090E0887F52
:1005C00090708036910509F4C7C081369105CCF54D
:1005D0008832910509F47BC089329105B4F48031E9
:1005E000910509F46FC0813191053CF4009709F43D
:1005F00016C1089709F017C165C08831910509F443
:1006000066C0809709F00FC176C08034910509F467
:1006100088C08134910544F48033910509F46DC09C
:10062000C89709F000C16DC08035910509F46DC00F
:100630008835910509F47AC08834910509F0F3C032
:10064000F0C08839910509F4E0C089399105ECF4CE
:100650008837910509F480C0893791054CF48836B4
:10066000910509F479C08037910509F0DCC074C0A8
:100670008838910509F4C9C08039910509F472C020
:100680008038910509F0CFC06DC0803B910509F419
:1006900094C0813B91054CF4803A910509F474C0F3
:1006A000883A910509F0BFC088C0803C910509F4E3
:1006B000B0C0883C910509F4ACC0883B910509F0B5
:1006C000B2C090C08091CB018093BB0012C09091CA
:1006D000F2018091F3019817A8F59091F201E92FAA
:1006E000F0E0EE52FE4F80818093BB009F5F9093BD
:1006F000F20185EC8BC080E201C080E38093370279
:1007000090C088E38093370284C08091F201909179
:10071000BB00E82FF0E0EE52FE4F90838F5F809396
:10072000F2019091F2018091F3016CC08091F2018D
:100730009091BB00E82FF0E0EE52FE4F90838F5F68
:100740008093F2018091CC01882309F06AC081E096
:100750008093CD0184EA5EC083E08093CA01109249
:100760003602C7CF80913602803208F04EC08091A9
:1007700036029091BB00E82FF0E0EA5EFD4F9083D7
:100780008F5F80933602B5CF80913602803230F48D
:10079000E0913602F0E0EA5EFD4F10820E94B8025E
:1007A00060913602E091D001F091D10186E192E0B2
:1007B00070E00995109236022CC084E08093CA0143
:1007C0001092140210921502E091CE01F091CF0127
:1007D000099580911502882329F481E08093150200
:1007E0001092F40190911402E92FF0E0EC50FE4FCA
:1007F00080818093BB009F5F9093140290911402BC
:1008000080911502981708F474CF85E88093BC0096
:100810000AC085EC8093BC001092CA0104C01092FB
:1008200037020E94B802FF91EF91BF91AF919F9163
:100830008F917F916F915F914F913F912F910F9089
:100840000FBE0F901F9018958CE392E042E350E0AA
:1008500060E070E00E94350485E492E040E050E002
:1008600060E070E00E94350408950F931F938C019F
:10087000FC01108245835683678370870E94900431
:10088000F80161837283838394831F910F9108958C
:100890001F920F920FB60F9211242F933F938F93B5
:1008A0009F93AF93BF938091520290915302A09176
:1008B0005402B0915502309156020196A11DB11D0E
:1008C000232F2D5F2D3720F02D570196A11DB11D2F
:1008D000209356028093520290935302A0935402A5
:1008E000B093550280914E0290914F02A091500218
:1008F000B09151020196A11DB11D80934E029093BB
:100900004F02A0935002B0935102BF91AF919F91BB
:100910008F913F912F910F900FBE0F901F901895C0
:100920008FB7F894209152023091530240915402B3
:10093000509155028FBFB901CA010895789484B5CA
:10094000826084BD84B5816084BD85B5826085BDCB
:1009500085B5816085BDEEE6F0E0808181608083B1
:10096000E1E8F0E010828081826080838081816094
:100970008083E0E8F0E0808181608083E1EBF0E05B
:10098000808184608083E0EBF0E0808181608083FF
:10099000EAE7F0E0808184608083808182608083E8
:1009A0008081816080838081806880831092C10013
:1009B0000895CF93DF93482F50E0CA0186569F4F8A
:1009C000FC0134914A575F4FFA018491882369F101
:1009D00090E0880F991FFC01E859FF4FA591B49151
:1009E000FC01EE58FF4FC591D491662351F42FB707
:1009F000F8948C91932F909589238C9388818923E7
:100A00000BC0623061F42FB7F8948C91932F9095BE
:100A100089238C938881832B88832FBF06C09FB73F
:100A2000F8948C91832B8C939FBFDF91CF91089585
:100A3000482F50E0CA0182559F4FFC012491CA0102
:100A400086569F4FFC0194914A575F4FFA013491AB
:100A5000332309F440C0222351F1233071F02430B4
:100A600028F42130A1F0223011F514C02630B1F065
:100A70002730C1F02430D9F404C0809180008F77F2
:100A800003C0809180008F7D8093800010C084B56A
:100A90008F7702C084B58F7D84BD09C08091B0007E
:100AA0008F7703C08091B0008F7D8093B000E32FDB
:100AB000F0E0EE0FFF1FEE58FF4FA591B4912FB756
:100AC000F894662321F48C919095892302C08C912F
:100AD000892B8C932FBF0895DC015C968C915C97D9
:100AE000FD01E80FF11DE35AFF4F20815C968C91C8
:100AF0005C9790E001968F7390705C968C935C97F6
:100B00005696ED91FC91579720835096ED91FC916C
:100B100051978081806480835B969C915B975C9603
:100B20008C915C97981739F45296ED91FC915397FC
:100B300080818F7D80830895DF92EF92FF920F93E3
:100B40001F93CF93DF93EC017A018B01D22EE889BA
:100B5000F98982E08083403081EE580780E06807A1
:100B600080E07807A1F060E079E08DE390E0A801F3
:100B700097010E94CB08215030404040504056958C
:100B800047953795279580E12030380798F0E88918
:100B9000F989108260E874E88EE190E0A80197017D
:100BA0000E94CB0821503040404050405695479518
:100BB00037952795EC85FD853083EE85FF8520836D
:100BC000188EEC89FD89D082EA89FB898081806159
:100BD0008083EA89FB89808188608083EA89FB8938
:100BE000808180688083EA89FB8980818F7D808312
:100BF000DF91CF911F910F91FF90EF90DF900895BB
:100C0000FC01218D828D30E0205C3F4F281B310993
:100C10002F733070C9010895FC01918D828D981752
:100C200019F42FEF3FEF06C0828DE80FF11D858D7F
:100C3000282F30E0C9010895DC0159969C915997FD
:100C40005A968C915A97981719F42FEF3FEF10C0CE
:100C50005A968C915A97FD01E80FF11D958D5A9681
:100C60008C915A978F5F8F735A968C93292F30E00F
:100C7000C9010895CF93DF93EC01888D882361F437
:100C800019C08C9185FF0AC0E889F989808185FFA8
:100C900005C0CE010E946C05AA89BB898C9185FD97
:100CA00005C0E889F989808186FD04C00FB607FE7A
:100CB000E8CFF4CFDF91CF9108950F931F93CF9397
:100CC000DF93EC01062F9B8D8C8D981791F5E889A9
:100CD000F989808185FF2DC0EE89FF896083E889CD
:100CE000F9898081806480831DC00FB607FC08C02D
:100CF000E889F989808185FF03C0CE010E946C05D7
:100D00008C8D181791F38B8DFE01E80FF11DE35ABE
:100D1000FF4F00831B8FEA89FB898081806280837B
:100D200081E0888F81E090E0DF91CF911F910F915A
:100D300008951B8D1F5F1F73E3CF85E297E0892B1A
:100D400051F080E090E0892B31F00E942507882344
:100D500011F00E94000008951F920F920FB60F929B
:100D600011242F938F939F93EF93FF93E09167024A
:100D7000F0916802808182FD16C0E0916D02F091D1
:100D80006E022081909170029F5F9F73809171022B
:100D9000981771F0E0917002F0E0E95AFD4F258F4D
:100DA0009093700205C0E0916D02F0916E02E081B7
:100DB000FF91EF919F918F912F910F900FBE0F9008
:100DC0001F90189510925A021092590288EE93E0E3
:100DD000A0E0B0E080935B0290935C02A0935D0280
:100DE000B0935E0287E391E090935802809357029C
:100DF00085EC90E0909364028093630284EC90E031
:100E0000909366028093650280EC90E09093680274
:100E10008093670281EC90E090936A02809369026C
:100E200082EC90E090936C0280936B0286EC90E0F1
:100E300090936E0280936D02109270021092710274
:100E40001092720210927302089587E592E00E9458
:100E5000000620E0892B09F021E0822F08951F92DF
:100E60000F920FB60F9211242F933F934F935F93DE
:100E70006F937F938F939F93AF93BF93EF93FF9362
:100E800087E592E00E946C05FF91EF91BF91AF91D1
:100E90009F918F917F916F915F914F913F912F9192
:100EA0000F900FBE0F901F901895CF93DF930E9465
:100EB0009E040E943D01CDE9D6E00E9424012097C6
:100EC000E1F30E949D06F9CFCF92DF92EF92FF925D
:100ED0000F931F93CF93DF937C016B018A01C0E0D6
:100EE000D0E00FC0D6016D916D01D701ED91FC915D
:100EF0000190F081E02DC7010995C80FD91F01505D
:100F000010400115110571F7CE01DF91CF911F91AE
:100F10000F91FF90EF90DF90CF900895EF92FF92A6
:100F20000F931F938C01DC01ED91FC910190F081F6
:100F3000E02D6DE009957C01D801ED91FC910190C7
:100F4000F081E02DC8016AE009959C012E0D3F1D3E
:100F5000C9011F910F91FF90EF900895CF93DF93F8
:100F6000EC016115710519F420E030E00FC0DB01E0
:100F70000D900020E9F71197A61BB70BE881F981C6
:100F80000280F381E02DAD0109959C01C901DF913B
:100F9000CF9108954F925F927F928F929F92AF92DE
:100FA000BF92CF92DF92EF92FF920F931F93DF9346
:100FB000CF93CDB7DEB7A1970FB6F894DEBF0FBEC3
:100FC000CDBF2C01742ECB01223008F42AE019A2E7
:100FD00031E2C32ED12CCC0EDD1E822E9924AA2400
:100FE000BB24672D752FA50194010E94CB087901C0
:100FF0008A01C801B701A50194010E94AC08472DE0
:10100000461B0894C108D1084A3014F4405D01C061
:10101000495CF6014083E114F1040105110521F05A
:101020007E2C5F2DC801DDCFC201B6010E94AE0744
:10103000A1960FB6F894DEBF0FBECDBFCF91DF9162
:101040001F910F91FF90EF90DF90CF90BF90AF90E6
:101050009F908F907F905F904F900895DC012115B5
:10106000310541F4ED91FC910190F081E02D642F68
:10107000099508950E94CA070895EF92FF920F9371
:101080001F939A01E62EFF2400E010E0B801A701AB
:101090000E942E081F910F91FF90EF900895CF921C
:1010A000DF92EF92FF920F931F93CF93DF93EC01A8
:1010B0006A017B012115310541F4E881F981019034
:1010C000F081E02D642F09951FC02A303105D1F43D
:1010D00077FF17C0E881F9810190F081E02D6DE282
:1010E00009958C0144275527BA014C195D096E09F1
:1010F0007F09CE012AE00E94CA079801280F391FF4
:1011000004C02AE00E94CA079C01C901DF91CF9167
:101110001F910F91FF90EF90DF90CF900895EF9285
:10112000FF920F931F937B019A010027F7FC009514
:10113000102FB801A7010E944F081F910F91FF9037
:10114000EF9008950E94AE07089570E0382F20E0D8
:10115000622B732BCB010895629FD001739FF00126
:10116000829FE00DF11D649FE00DF11D929FF00D37
:10117000839FF00D749FF00D659FF00D9927729F6E
:10118000B00DE11DF91F639FB00DE11DF91FBD01F9
:10119000CF0111240895A1E21A2EAA1BBB1BFD0149
:1011A0000DC0AA1FBB1FEE1FFF1FA217B307E40746
:1011B000F50720F0A21BB30BE40BF50B661F771F9E
:1011C000881F991F1A9469F760957095809590957E
:1011D0009B01AC01BD01CF010895EE0FFF1F0590EB
:0A11E000F491E02D0994F894FFCF7C
:1011EA005365656B7570007365656B20646F776E08
:1011FA000053657474696E672070696E20002074EC
:10120A006F2000000000000E02DD0196019F01B46C
:10121A0001C501000000005D06640700061C060CFB
:04122A00063A06007A
:00000001FF
