:100000000C9465000C948D000C948D000C948D0064
:100010000C948D000C948D000C948D000C948D002C
:100020000C948D000C948D000C948D000C948D001C
:100030000C948D000C948D000C948D000C948D000C
:100040000C94AD040C948D000C9411070C9494073F
:100050000C948D000C948D000C948D000C948D00EC
:100060000C94FA020C948D0000000000240027007C
:100070002A0000000000250028002B0000000000DE
:1000800023002600290004040404040404040202DA
:100090000202020203030303030301020408102007
:1000A0004080010204081020010204081020000012
:1000B0000007000201000003040600000000000029
:1000C00000008F00F5018904470711241FBECFEF00
:1000D000D8E0DEBFCDBF11E0A0E0B1E0E6ECF0E19A
:1000E00002C005900D92A233B107D9F712E0A2E346
:1000F000B1E001C01D92A63EB107E1F710E0CAECE5
:10010000D0E004C02297FE010E945D08C23CD107E6
:10011000C9F70E94BA070C9461080C94000082E3AE
:1001200091E00E9453040895CF92DF92EF92FF92E4
:100130000F93DF93CF9300D00F92CDB7DEB7CDB63C
:10014000DEB6FE01319693E0DF011D929A95E9F744
:1001500089837A836B838DB79EB708970FB6F8941F
:100160009EBF0FBE8DBFEDB6FEB60894E11CF11C1C
:1001700082E391E068E0A7019F010AE00E94570432
:1001800089E492E0B70148E050E00E94C9070FB649
:10019000F894DEBE0FBECDBE0F900F900F90CF91A2
:1001A000DF910F91FF90EF90DF90CF900895462F51
:1001B000682F70E064517C4F8AE691E00E94B9019B
:1001C0000895FF920F931F93809149018A3009F09F
:1001D00070C080914C018C3849F18D3840F48537DE
:1001E00071F08837E1F0843709F063C00DC08E38B4
:1001F00091F18E3820F1803909F05BC049C089E463
:1002000092E060E071E004C089E492E067E071E0B0
:100210000E942F0889E492E00E94F3074AC080916F
:100220004D0160914E010E94320843C080914D0102
:10023000E82FF0E0EB5CFE4F108261E009C0809196
:100240004D01E82FF0E0EB5CFE4F91E0908360E021
:100250000E947D052EC0F0904D012F2D30E060E012
:10026000F901EB5CFE4F8081882309F461E089018C
:100270000B5C1E4FF80160838F2D0E947D05F801F5
:10028000708160E06F0D711D81E90E94940011C0C2
:1002900000914D0110914E01113019F4802F60E052
:1002A00002C0802F61E00E943E05802F612F0E94D6
:1002B000D7001F910F91FF900895CF93DF931CC03B
:1002C00080916901C82FD0E089E492E00E94810604
:1002D000C75BDE4F888390916901E92FF0E0E75B0F
:1002E000FE4F80818E3729F4109269010E94E1004F
:1002F00009C09F5F9093690189E492E00E946506BE
:10030000892BF1F6DF91CF9108951F93CF93DF935F
:1003100089E492E040E052EC61E070E026E00E9467
:100320000106CCEED3E0CE018C5E182F8AE691E078
:10033000BE010E94B20190E08F3F09F091E0FE0102
:10034000E75BF2409083992321F0812F61E00E94C6
:100350003E05219694E0C030D90729F7DF91CF916F
:100360001F910895F999FECF72BD61BDF89A80B5CD
:100370000895F999FECF1FBA72BD61BD40BD0FB699
:10038000F894FA9AF99A0FBE089520918C0130E002
:1003900080918B01281B3109C901089540918B017F
:1003A00080918C01481718F02FEF3FEF0AC0E42F1F
:1003B000F0E0E559FE4F8081282F30E04F5F4093F9
:1003C0008B01C9010895E0918B0180918C01E817A0
:1003D00018F0EFEFFFEF06C0F0E0E559FE4F808127
:1003E000E82FF0E0CF01089508951092B301109224
:1003F000B20188EE93E0A0E0B0E08093B401909366
:10040000B501A093B601B093B70185E191E0909357
:10041000B1018093B0010895CF92DF92EF92FF92E5
:100420000F931F93CF93DF937C016B018A0180911F
:10043000AF018823A1F0C0E0D0E00DC0D701ED915D
:10044000FC91D601AC0FBD1F0190F081E02DC701DA
:100450006C9109952196C017D10780F304C0CB0198
:10046000642F0E946D02C801DF91CF911F910F91FF
:10047000FF90EF90DF90CF900895DF93CF930F928E
:10048000CDB7DEB7FC0169838091AF018823C9F045
:100490008091AE01803238F081E090E093838283D6
:1004A00020E030E015C08091AD01E82FF0E0E35787
:1004B000FE4F998190838F5F8093AD018093AE0151
:1004C00005C0CE01019661E00E946D0221E030E09E
:1004D000C9010F90CF91DF910895482F613210F03C
:1004E00081E008958091BC01843011F082E008958C
:1004F00060930702A6EEB1E0842F9C01F90102C0CF
:1005000081918D938E2F841B8617D0F380E0089500
:100510000F931F930CEB10E0F80110821092BC01B6
:1005200081E08093BE011092BF0182E161E00E94F0
:100530007D0583E161E00E947D05E9EBF0E08081CB
:100540008E7F808380818D7F808388E48093B80054
:1005500085E4F80180831F910F910895882349F065
:1005600010922A0210922B0210922C0210922D024D
:1005700013C080912A0290912B02A0912C02B0917D
:100580002D020196A11DB11D80932A0290932B028A
:10059000A0932C02B0932D0280912A0290912B02FD
:1005A000A0912C02B0912D02805A9648A140B040F3
:1005B00010F480E0089510922A0210922B021092FB
:1005C0002C0210922D020E94880281E0089585ED90
:1005D0008093BC0081E00E94AE0205C080E00E94D2
:1005E000AE02882331F48091BC0084FDF7CF1092D5
:1005F000BC0108951F920F920FB60F9211242F93F2
:100600003F934F935F936F937F938F939F93AF939A
:10061000BF93EF93FF938091B90090E0887F907033
:100620008036910509F4C7C081369105CCF5883232
:10063000910509F47BC089329105B4F480319105AC
:1006400009F46FC0813191053CF4009709F416C19B
:10065000089709F017C165C08831910509F466C093
:10066000809709F00FC176C08034910509F488C0E5
:100670008134910544F48033910509F46DC0C89725
:1006800009F000C16DC08035910509F46DC0883551
:10069000910509F47AC08834910509F0F3C0F0C0DF
:1006A0008839910509F4E0C089399105ECF488375F
:1006B000910509F480C0893791054CF4883691057D
:1006C00009F479C08037910509F0DCC074C088381E
:1006D000910509F4C9C08039910509F472C08038C8
:1006E000910509F0CFC06DC0803B910509F494C01D
:1006F000813B91054CF4803A910509F474C0883A25
:10070000910509F0BFC088C0803C910509F4B0C0D4
:10071000883C910509F4ACC0883B910509F0B2C052
:1007200090C08091BD018093BB0012C09091E40104
:100730008091E5019817A8F59091E401E92FF0E088
:10074000EC53FE4F80818093BB009F5F9093E40148
:1007500085EC8BC080E201C080E38093290290C0C9
:1007600088E38093290284C08091E4019091BB00CA
:10077000E82FF0E0EC53FE4F90838F5F8093E4010D
:100780009091E4018091E5016CC08091E401909129
:10079000BB00E82FF0E0EC53FE4F90838F5F809317
:1007A000E4018091BE01882309F06AC081E0809352
:1007B000BF0184EA5EC083E08093BC0110922802EE
:1007C000C7CF80912802803208F04EC08091280265
:1007D0009091BB00E82FF0E0E85FFD4F90838F5FC2
:1007E00080932802B5CF80912802803230F4E091C6
:1007F0002802F0E0E85FFD4F10820E94E70260915E
:100800002802E091C201F091C30188E092E070E01B
:100810000995109228022CC084E08093BC011092AC
:10082000060210920702E091C001F091C101099502
:1008300080910702882329F481E0809307021092B7
:10084000E60190910602E92FF0E0EA51FE4F808127
:100850008093BB009F5F9093060290910602809167
:100860000702981708F474CF85E88093BC000AC08B
:1008700085EC8093BC001092BC0104C01092290248
:100880000E94E702FF91EF91BF91AF919F918F91ED
:100890007F916F915F914F913F912F910F900FBE7C
:1008A0000F901F901895FC011282118208950F93EA
:1008B000CF93DF93EA018EE7888309830A83762F3B
:1008C00075507B8390E0462F50E04550504008C063
:1008D000FE01EA0FFB1FA20FB31F8C9184839F5F61
:1008E000A92FB0E0A417B5079CF3472F50E0F901FA
:1008F00020E005C0819190E0482759272F5F2717F6
:10090000C8F3C60FD11D21974883DF91CF910F9176
:1009100008958EE292E042E350E060E070E00E94D1
:100920009A0487E392E040E050E060E070E00E94CB
:100930009A0408950F931F938C01FC011082458344
:100940005683678370870E94F504F8016183728380
:10095000838394831F910F9108951F920F920FB676
:100960000F9211242F933F938F939F93AF93BF9335
:100970008091440290914502A0914602B0914702B5
:10098000309148020196A11DB11D232F2D5F2D37F7
:1009900020F02D570196A11DB11D20934802809390
:1009A000440290934502A0934602B093470280917F
:1009B000400290914102A0914202B09143020196FF
:1009C000A11DB11D8093400290934102A093420269
:1009D000B0934302BF91AF919F918F913F912F911F
:1009E0000F900FBE0F901F9018958FB7F89420911D
:1009F00044023091450240914602509147028FBF18
:100A0000B901CA010895789484B5826084BD84B523
:100A1000816084BD85B5826085BD85B5816085BDF9
:100A2000EEE6F0E0808181608083E1E8F0E0108212
:100A3000808182608083808181608083E0E8F0E053
:100A4000808181608083E1EBF0E08081846080833D
:100A5000E0EBF0E0808181608083EAE7F0E0808174
:100A600084608083808182608083808181608083D4
:100A70008081806880831092C1000895CF93DF93B6
:100A8000482F50E0CA0186569F4FFC0134914A57C7
:100A90005F4FFA018491882369F190E0880F991FD4
:100AA000FC01E859FF4FA591B491FC01EE58FF4FAE
:100AB000C591D491662351F42FB7F8948C91932F5C
:100AC000909589238C93888189230BC0623061F4CF
:100AD0002FB7F8948C91932F909589238C938881CC
:100AE000832B88832FBF06C09FB7F8948C91832BEC
:100AF0008C939FBFDF91CF910895482F50E0CA019A
:100B000082559F4FFC012491CA0186569F4FFC01DC
:100B100094914A575F4FFA013491332309F440C04E
:100B2000222351F1233071F0243028F42130A1F038
:100B3000223011F514C02630B1F02730C1F0243036
:100B4000D9F404C0809180008F7703C08091800029
:100B50008F7D8093800010C084B58F7702C084B5EC
:100B60008F7D84BD09C08091B0008F7703C08091D4
:100B7000B0008F7D8093B000E32FF0E0EE0FFF1FF9
:100B8000EE58FF4FA591B4912FB7F894662321F446
:100B90008C919095892302C08C91892B8C932FBFC7
:100BA0000895DC015C968C915C97FD01E80FF11DC6
:100BB000E35AFF4F20815C968C915C9790E0019600
:100BC0008F7390705C968C935C975696ED91FC9128
:100BD000579720835096ED91FC91519780818064C6
:100BE00080835B969C915B975C968C915C97981741
:100BF00039F45296ED91FC91539780818F7D8083DB
:100C00000895DF92EF92FF920F931F93CF93DF939C
:100C1000EC017A018B01D22EE889F98982E0808388
:100C2000403081EE580780E0680780E07807A1F047
:100C300060E079E08DE390E0A80197010E94390817
:100C40002150304040405040569547953795279564
:100C500080E12030380798F0E889F989108260E84F
:100C600074E88EE190E0A80197010E9439082150B4
:100C70003040404050405695479537952795EC8534
:100C8000FD853083EE85FF852083188EEC89FD89F4
:100C9000D082EA89FB89808180618083EA89FB892F
:100CA000808188608083EA89FB8980818068808375
:100CB000EA89FB8980818F7D8083DF91CF911F91AD
:100CC0000F91FF90EF90DF900895FC01218D828DB0
:100CD00030E0205C3F4F281B31092F733070C90171
:100CE0000895FC01918D828D981719F42FEF3FEF35
:100CF00006C0828DE80FF11D858D282F30E0C901D7
:100D00000895DC0159969C9159975A968C915A975F
:100D1000981719F42FEF3FEF10C05A968C915A97FD
:100D2000FD01E80FF11D958D5A968C915A978F5FB2
:100D30008F735A968C93292F30E0C9010895CF9371
:100D4000DF93EC01888D882361F419C08C9185FFB5
:100D50000AC0E889F989808185FF05C0CE010E941B
:100D6000D105AA89BB898C9185FD05C0E889F989DF
:100D7000808186FD04C00FB607FEE8CFF4CFDF9177
:100D8000CF9108950F931F93CF93DF93EC01062F1C
:100D90009B8D8C8D981791F5E889F989808185FF65
:100DA0002DC0EE89FF896083E889F989808180649C
:100DB00080831DC00FB607FC08C0E889F9898081CF
:100DC00085FF03C0CE010E94D1058C8D181791F3C9
:100DD0008B8DFE01E80FF11DE35AFF4F00831B8F3F
:100DE000EA89FB8980818062808381E0888F81E04D
:100DF00090E0DF91CF911F910F9108951B8D1F5FA0
:100E00001F73E3CF8AE897E0892B51F080E090E0F0
:100E1000892B31F00E948A07882311F00E9400007C
:100E200008951F920F920FB60F9211242F938F9354
:100E30009F93EF93FF93E0915902F0915A028081C2
:100E400082FD16C0E0915F02F091600220819091D6
:100E500062029F5F9F7380916302981771F0E09127
:100E60006202F0E0E75BFD4F258F9093620205C0C0
:100E7000E0915F02F0916002E081FF91EF919F911C
:100E80008F912F910F900FBE0F901F901895109279
:100E90004C0210924B0288EE93E0A0E0B0E0809309
:100EA0004D0290934E02A0934F02B093500285E200
:100EB00091E090934A028093490285EC90E09093F0
:100EC00056028093550284EC90E0909358028093F0
:100ED000570280EC90E090935A028093590281EC83
:100EE00090E090935C0280935B0282EC90E09093A0
:100EF0005E0280935D0286EC90E0909360028093A6
:100F00005F021092620210926302109264021092C9
:100F10006502089589E492E00E94650620E0892B2D
:100F200009F021E0822F08951F920F920FB60F92C1
:100F300011242F933F934F935F936F937F938F93DE
:100F40009F93AF93BF93EF93FF9389E492E00E9446
:100F5000D105FF91EF91BF91AF919F918F917F91BB
:100F60006F915F914F913F912F910F900FBE0F9016
:100F70001F901895CF93DF930E9403050E9485016F
:100F8000C2E0D7E00E945D012097E1F30E940207D2
:100F9000F9CFCF92DF92EF92FF920F931F93CF93EF
:100FA000DF937C016B018A01C0E0D0E00FC0D60165
:100FB0006D916D01D701ED91FC910190F081E02DD3
:100FC000C7010995C80FD91F01501040011511051F
:100FD00071F7CE01DF91CF911F910F91FF90EF90AC
:100FE000DF90CF900895EF92FF920F931F938C01A3
:100FF000DC01ED91FC910190F081E02D6DE009950F
:101000007C01D801ED91FC910190F081E02DC801A7
:101010006AE009959C012E0D3F1DC9011F910F919A
:10102000FF90EF900895CF93DF93EC016115710568
:1010300019F420E030E00FC0DB010D900020E9F74B
:101040001197A61BB70BE881F9810280F381E02D8F
:10105000AD0109959C01C901DF91CF9108950E94CE
:101060001308089570E0382F20E0622B732BCB011A
:101070000895A1E21A2EAA1BBB1BFD010DC0AA1FD9
:10108000BB1FEE1FFF1FA217B307E407F50720F0F1
:10109000A21BB30BE40BF50B661F771F881F991F6C
:1010A0001A9469F760957095809590959B01AC01B5
:1010B000BD01CF010895EE0FFF1F0590F491E02DC3
:0610C0000994F894FFCF33
:1010C6005365656B7570007365656B20646F776E2D
:1010D60000000000003D020C02C501CE01E301F450
:1010E6000100000000C206C9076506810671069F59
:0210F6000600F2
:00000001FF
