:100000000C94B4000C94DC000C94DC000C94180FDD
:100010000C94420F0C946C0F0C94DC000C94DC00DC
:100020000C94DC000C94DC000C94DC000C94DC00E0
:100030000C94DC000C94DC000C94DC000C94DC00D0
:100040000C9407080C94DC000C9478040C94C604FF
:100050000C94DC000C94DC000C94DC000C94DC00B0
:100060000C94470B0C94DC000000000024002700D7
:100070002A0000000000250028002B0000000000DE
:1000800023002600290004040404040404040202DA
:100090000202020203030303030301020408102007
:1000A0004080010204081020010204081020000012
:1000B0000007000201000003040600000000000029
:1000C000000000C201000100110011000C0000E15D
:1000D00000000A00250025002100009600001900FC
:1000E000390039003600127A00001F004600460031
:1000F00044008070000022004D004D004A00004B7B
:1001000000003600750075007200403800004A009B
:100110009C009C009900802500007200EC00EC001F
:10012000E900C0120000E900DA01DA01D701600934
:100130000000D701B603B603B303B0040000B30355
:100140006E076E076B07580200006E07DC0EDC0EB0
:10015000D80E2C010000DC0EC11DC11DBE1DE20029
:1001600032061B0A280D210D11241FBECFEFD8E047
:10017000DEBFCDBF11E0A0E0B1E0E8E2F9E202C0ED
:1001800005900D92A635B107D9F713E0A6E5B1E0C9
:1001900001C01D92AA39B107E1F711E0C6E6D1E02E
:1001A00004C02297FE010E948314CE35D107C9F7FF
:1001B0000E9488060C9487140C94000081E08093C0
:1001C000560108950E944F0870935801609357019B
:1001D00086E691E044EF51E060E070E00E94600E3E
:1001E0008FE691E04AEF50E060E070E00E94600E20
:1001F00088E791E00E94F60C089586E792E060E1BE
:100200000E94630A08951F9310E019C0E12FF0E0E7
:10021000EE5DFE4F86E792E060810E94A60986E7C8
:1002200092E069E00E94630A86E792E00E94A60AD3
:1002300065E070E080E090E00E945D081F5F8091C3
:100240001C01181718F31F9108950F931F93182F6F
:10025000092F4AE050E00E948107812F902F1F91C3
:100260000F9108950F931F9386E792E00E94B909BA
:10027000833109F446C0843130F4893051F0803143
:1002800009F094C00CC0873141F1803309F08EC071
:1002900044C086E792E060E10E94630A87C081E083
:1002A00092E060E071E00E94040886E792E00E941C
:1002B000B909BC0181E092E04AE050E00E94F107F8
:1002C00081E092E063E071E00E94040881E092E046
:1002D00060E10E9425018C0161C081E092E068E04C
:1002E00071E00E94040886E792E00E94B909BC010F
:1002F00081E092E04AE050E00E94F10781E092E064
:1003000053C086E792E00E94B909813019F48093C6
:1003100059014CC01092590149C081E092E060E05F
:1003200071E00E94040881E092E06EE00E942501E5
:100330008C0163E071E00E940408C80160E30E9440
:1003400025018C0163E071E00E94040886E792E0D9
:100350000E94B909BC01C8014AE050E00E94F107BF
:10036000C80163E071E00E94040886E792E00E9401
:10037000B909BC01C8014AE050E00E94F107C80178
:1003800063E071E00E94040886E792E00E94B909E8
:10039000BC01C8014AE050E00E94F107C80165E0D5
:1003A00071E00E940408C8010E94C1061F910F91CC
:1003B00008950F931F9382E00E94F1089C0190938F
:1003C0006301809362018091640190916501281717
:1003D000390749F181E092E060E071E00E94040891
:1003E00081E092E060EB0E9425018C0163E071E006
:1003F0000E9404086091620170916301C8014AE0A3
:1004000050E00E947007C80165E071E00E94040896
:10041000C8010E94C106809162019091630190938E
:100420006501809364011F910F910895FF920F93CE
:100430001F93F82E80E00E94F1080DE210E09C016D
:10044000209FC001219F900D309F900D112460E0EE
:1004500074E00E94381470935B0160935A0181E04C
:100460000E94F1089C01209FC001219F900D309FA8
:10047000900D112460E074E00E94381470935F01C5
:1004800060935E0120915A0130915B0180915C0183
:1004900090915D012817390711F4FF2029F130935D
:1004A0005D0120935C0181E092E060E071E00E94D8
:1004B000040881E092E060EA0E9425018C0163E07B
:1004C00071E00E94040860915A0170915B01C801BB
:1004D0004AE050E00E947007C80165E071E00E94A8
:1004E0000408C8010E94C10620915E0130915F019D
:1004F00080916001909161012817390711F4FF2064
:1005000029F1309361012093600181E092E060E085
:1005100071E00E94040881E092E061EA0E942501F6
:100520008C0163E071E00E94040860915E017091AB
:100530005F01C8014AE050E00E947007C80165E011
:1005400071E00E940408C8010E94C1061F910F912A
:10055000FF9008958F929F92BF92CF92DF92EF9279
:10056000FF920F931F93DF93CF93CDB7DEB78DB676
:100570009EB681E092E00E94B905182F81E092E0DA
:10058000612F4AE050E00E9493071E3031F11F3086
:1005900020F4193009F064C00DC0123A21F01F3A5E
:1005A00009F05EC004C081E00E94160259C00E949A
:1005B000D90156C081E092E00E94B905682F86E714
:1005C00092E00E94A60986E792E069E00E94630A31
:1005D00086E792E00E94A60A43C00DB7BEB66AE065
:1005E00070E080E090E00E945D0881E092E00E946F
:1005F00088056C018DB79EB78C199D090FB6F894CC
:100600009EBF0FBE8DBFEDB6FEB60894E11CF11C77
:1006100010E009C081E092E00E94B905F701E10F06
:10062000F11D80831F5F81E092E00E948805892B85
:1006300089F786E792E06EE00E94A60986E792E0DD
:10064000B701A6010E94320A86E792E00E94A60A3C
:10065000802F9B2D9C010FB6F8943EBF0FBE2DBF7F
:100660000FB6F8949EBE0FBE8DBECF91DF911F9145
:100670000F91FF90EF90DF90CF90BF909F908F9061
:100680000895BF92CF92DF92EF92FF920F931F9344
:1006900088E791E00E942F0D8FE691E00E94730E93
:1006A000882309F4BDC088E791E00E94F70CD82E9A
:1006B00088E791E00E94FC0CC82E88E791E00E9438
:1006C000FF0CB82E88E791E00E94040D7C0181E0C8
:1006D00092E060E071E00E94040881E092E066EB45
:1006E0000E9425018C0163E071E00E940408C801AA
:1006F00061EB0E9425018C0163E071E00E94040817
:10070000C8016D2D70E04AE050E00E94F107C80179
:1007100065E071E00E940408C8010E94C10681E002
:1007200092E060E071E00E94040881E092E066EBF4
:100730000E9425018C0163E071E00E940408C80159
:1007400065EB0E9425018C0163E071E00E940408C2
:10075000C8016C2D70E04AE050E00E94F107C8012A
:1007600065E071E00E940408C8010E94C10681E0B2
:1007700092E060E071E00E94040881E092E066EBA4
:100780000E9425018C0163E071E00E940408C80109
:1007900062EB0E9425018C0163E071E00E94040875
:1007A000C8016B2D70E04AE050E00E94F107C801DB
:1007B00065E071E00E940408C8010E94C10681E062
:1007C00092E060E071E00E94040881E092E066EB54
:1007D0000E9425018C0163E071E00E940408C801B9
:1007E00063EB0E9425018C0163E071E00E94040824
:1007F0006F2D772767FD7A95C8010E9425018C012E
:1008000063E071E00E940408C8016E2D0E9425017A
:100810008C0165E071E00E940408C8010E94C106D5
:1008200086E691E00E94730E882329F080E00E9402
:1008300016020E94D90181E092E00E948805892B6E
:1008400011F00E94AA0286E792E00E94B009892B6B
:1008500011F00E94320110925601809159018823B3
:10086000B9F00E944F08209157013091580140E0A3
:1008700050E0621B730B840B950B653F710581057E
:10088000910530F00E944F08709358016093570112
:100890001F910F91FF90EF90DF90CF90BF90089540
:1008A0000F931F9306E712E0C8016AE00E94B50AA1
:1008B00087E060E00E941309C8016EED70E00E94BD
:1008C000110AC8016DEF70E00E94160A81E092E003
:1008D00040E052EC61E070E00E94010588E791E0A1
:1008E0000E94570E0E9403011F910F9108950895D1
:1008F0001F920F920FB60F9211242F933F934F9395
:100900008F939F93EF93FF938091C00082FD1DC052
:100910004091C6002091B9013091BA012F5F3F4F3D
:100920002F7330708091BB019091BC01281739075B
:1009300071F0E091B901F091BA01E758FE4F4083A0
:100940003093BA012093B90102C08091C600FF9193
:10095000EF919F918F914F913F912F910F900FBEEB
:100960000F901F901895E0910D02F0910E02E05C3F
:10097000FF4F8191919120813181821B930B8F7365
:100980009070892B11F00E94770408951F920F92A6
:100990000FB60F9211242F933F938F939F93EF9352
:1009A000FF932091FD013091FE018091FF01909114
:1009B00000022817390731F48091C1008F7D8093A0
:1009C000C10014C0E091FF01F0910002E354FE4F1A
:1009D00020818091FF019091000201968F739070A9
:1009E000909300028093FF012093C600FF91EF9146
:1009F0009F918F913F912F910F900FBE0F901F905D
:100A00001895AF92BF92DF92EF92FF920F931F93D0
:100A1000CF93DF93EC017A018B01DD24403081EE2E
:100A2000580780E0680780E0780711F0DD24D39450
:100A300091E0A92EB12CEC89FD89DD2069F0C5017A
:100A400008A002C0880F991F0A94E2F7808360E033
:100A500079E08DE390E005C0108260E874E88EE1F3
:100A600090E0A80197010E944B1421503040404073
:100A70005040569547953795279580E120303807A7
:100A800020F0DD2011F0DD24D6CFE889F98930830C
:100A9000EA89FB89208319A2EE89FF89408121E040
:100AA00030E0C9010C8C02C0880F991F0A94E2F74C
:100AB000482B4083EE89FF894081C9010D8C02C01B
:100AC000880F991F0A94E2F7482B4083EE89FF892B
:100AD0004081C9010E8C02C0880F991F0A94E2F769
:100AE000482B4083EE89FF8980810F8C02C0220F42
:100AF000331F0A94E2F7209528232083DF91CF91BA
:100B00001F910F91FF90EF90DF90BF90AF900895ED
:100B1000DC011C96ED91FC911D97E05CFF4F21914B
:100B2000319180819181281B390B2F733070C9015D
:100B30000895DC011C96ED91FC911D97E05CFF4F40
:100B400020813181E054F040DF01AE5BBF4F8D91D9
:100B50009C9111972817390719F42FEF3FEF07C021
:100B60008D919C91E80FF91F8081282F30E0C901F9
:100B70000895DC011C96ED91FC911D97E05CFF4F00
:100B800020813181E054F040DF01AE5BBF4F8D9199
:100B90009C9111972817390719F42FEF3FEF10C0D8
:100BA0008D919C911197E80FF91F20818D919C9157
:100BB000119701968F73907011969C938E9330E0ED
:100BC000C9010895DC0191968C919197882339F0A1
:100BD0005496ED91FC915597808186FFF9CF9196BF
:100BE0001C920895CF93DF93EC01EE85FF85E05CC6
:100BF000FF4F20813181E054F0402F5F3F4F2F7332
:100C00003070DF01AE5BBF4F8D919C91119728171B
:100C10003907D1F3E05CFF4F80819181E054F040CF
:100C2000E80FF91F6083EE85FF85E05CFF4F31839D
:100C30002083EE89FF89208181E090E00F8C02C043
:100C4000880F991F0A94E2F7282B208381E089A35B
:100C5000EC89FD8980818064808381E090E0DF9170
:100C6000CF910895109204021092030288EE93E04F
:100C7000A0E0B0E08093050290930602A0930702E3
:100C8000B093080289E291E09093020280930102FE
:100C900089E791E090930E0280930D028DEB91E035
:100CA0009093100280930F0285EC90E090931202D3
:100CB0008093110284EC90E09093140280931302CD
:100CC00080EC90E0909316028093150281EC90E006
:100CD000909318028093170282EC90E090931A028E
:100CE0008093190286EC90E090931C0280931B0283
:100CF00084E080931D0283E080931E0287E080934E
:100D00001F0285E08093200281E0809321020895F4
:100D1000CF93DF930E94B6080E945004C3EBD4E047
:100D20000E9441032097E1F30E94B304F9CFCF92D0
:100D3000DF92EF92FF920F931F93CF93DF937C018B
:100D40006B018A01C0E0D0E00FC0D6016D916D014A
:100D5000D701ED91FC910190F081E02DC70109953B
:100D6000C80FD91F015010400115110571F7CE01B0
:100D7000DF91CF911F910F91FF90EF90DF90CF9077
:100D80000895EF92FF920F931F938C01DC01ED9178
:100D9000FC910190F081E02D6DE009957C01D80176
:100DA000ED91FC910190F081E02DC8016AE0099578
:100DB0009C012E0D3F1DC9011F910F91FF90EF90D7
:100DC0000895CF93DF93EC016115710519F420E0CC
:100DD00030E00FC0DB010D900020E9F71197A61B52
:100DE000B70BE881F9810280F381E02DAD0109950F
:100DF0009C01C901DF91CF9108954F925F927F923C
:100E00008F929F92AF92BF92CF92DF92EF92FF921A
:100E10000F931F93DF93CF93CDB7DEB7A1970FB694
:100E2000F894DEBF0FBECDBF2C01742ECB01223053
:100E300008F42AE019A231E2C32ED12CCC0EDD1E1B
:100E4000822E9924AA24BB24672D752FA501940115
:100E50000E944B1479018A01C801B701A5019401D0
:100E60000E941914472D461B0894C108D1084A3026
:100E700014F4405D01C0495CF6014083E114F104C3
:100E80000105110521F07E2C5F2DC801DDCFC201C7
:100E9000B6010E94E106A1960FB6F894DEBF0FBE20
:100EA000CDBFCF91DF911F910F91FF90EF90DF9019
:100EB000CF90BF90AF909F908F907F905F904F901A
:100EC0000895DC012115310541F4ED91FC9101906B
:100ED000F081E02D642F099508950E94FD06089584
:100EE000EF92FF920F931F939A017B0100E010E0B5
:100EF000B801A7010E9461071F910F91FF90EF9029
:100F00000895EF92FF920F931F939A01E62EFF240C
:100F100000E010E0B801A7010E9461071F910F9146
:100F2000FF90EF900895CF92DF92EF92FF920F9390
:100F30001F936C01E62E9A01FF2400E010E0B80137
:100F4000A7010E9461078C01C6010E94C106080F1B
:100F5000191FC8011F910F91FF90EF90DF90CF9064
:100F60000895CF92DF92EF92FF920F931F93CF934A
:100F7000DF93EC016A017B012115310541F4E88121
:100F8000F9810190F081E02D642F09951FC02A306E
:100F90003105D1F477FF17C0E881F9810190F08124
:100FA000E02D6DE209958C0144275527BA014C19B3
:100FB0005D096E097F09CE012AE00E94FD069801B5
:100FC000280F391F04C02AE00E94FD069C01C901B8
:100FD000DF91CF911F910F91FF90EF90DF90CF9015
:100FE0000895EF92FF920F931F937B019A010027C0
:100FF000F7FC0095102FB801A7010E94B1071F91BF
:101000000F91FF90EF9008950E94E10608951F92BE
:101010000F920FB60F9211242F933F938F939F93AC
:10102000AF93BF938091270290912802A09129024B
:10103000B0912A0230912B020196A11DB11D232FE0
:101040002D5F2D3720F02D570196A11DB11D209346
:101050002B028093270290932802A0932902B09339
:101060002A028091230290912402A0912502B0913E
:1010700026020196A11DB11D8093230290932402A4
:10108000A0932502B0932602BF91AF919F918F91BB
:101090003F912F910F900FBE0F901F9018958FB713
:1010A000F894209127023091280240912902509112
:1010B0002A028FBFB901CA0108959B01AC017FB715
:1010C000F8948091230290912402A0912502B0917E
:1010D000260266B5A89B05C06F3F19F00196A11DB9
:1010E000B11D7FBFBA2FA92F982F8827860F911D7A
:1010F000A11DB11D62E0880F991FAA1FBB1F6A9531
:10110000D1F7BC012DC0FFB7F894809123029091D4
:101110002402A0912502B0912602E6B5A89B05C045
:10112000EF3F19F00196A11DB11DFFBFBA2FA92FE6
:10113000982F88278E0F911DA11DB11DE2E0880F09
:10114000991FAA1FBB1FEA95D1F7861B970B885ED4
:101150009340C8F2215030404040504068517C4F8D
:10116000211531054105510571F60895789484B52E
:10117000826084BD84B5816084BD85B5826085BD93
:1011800085B5816085BDEEE6F0E080818160808379
:10119000E1E8F0E01082808182608083808181605C
:1011A0008083E0E8F0E0808181608083E1EBF0E023
:1011B000808184608083E0EBF0E0808181608083C7
:1011C000EAE7F0E0808184608083808182608083B0
:1011D0008081816080838081806880831092C100DB
:1011E0000895982F8E3008F09E50977080911D01C1
:1011F0008295880F880F807C892B80937C0080915A
:101200007A00806480937A0080917A0086FDFCCF1A
:101210002091780040917900942F80E030E0282BD5
:10122000392BC9010895CF93DF93482F50E0CA01AD
:1012300086569F4FFC0134914A575F4FFA018491C3
:10124000882369F190E0880F991FFC01E859FF4F4E
:10125000A591B491FC01EE58FF4FC591D49166233E
:1012600051F42FB7F8948C91932F909589238C93F8
:10127000888189230BC0623061F42FB7F8948C9178
:10128000932F909589238C938881832B88832FBFFC
:1012900006C09FB7F8948C91832B8C939FBFDF91EE
:1012A000CF910895482F50E0CA0182559F4FFC010D
:1012B0002491CA0186569F4FFC0194914A575F4F73
:1012C000FA013491332309F440C0222351F1233031
:1012D00071F0243028F42130A1F0223011F514C02F
:1012E0002630B1F02730C1F02430D9F404C0809109
:1012F00080008F7703C0809180008F7D8093800075
:1013000010C084B58F7702C084B58F7D84BD09C0BD
:101310008091B0008F7703C08091B0008F7D809363
:10132000B000E32FF0E0EE0FFF1FEE58FF4FA59146
:10133000B4912FB7F894662321F48C91909589236A
:1013400002C08C91892B8C932FBF089581E08093EC
:10135000710260934E0210926F0210927002089513
:1013600020914D0230E080914C02281B3109C901C7
:10137000089540914C0280914D02481718F02FEFCC
:101380003FEF0AC0E42FF0E0E45DFD4F8081282F9D
:1013900030E04F5F40934C02C9010895E0914C0248
:1013A00080914D02E81718F0EFEFFFEF06C0F0E074
:1013B000E45DFD4F8081E82FF0E0CF0108950895AE
:1013C000AC01209174023091750221153105E1F0D4
:1013D00090914C0280914D029817B0F090E008C0B7
:1013E000FA01EA0FFB1F8081A45DBD4F8C939F5FC4
:1013F000A92FB0E0A617B7079CF310924C02609398
:101400004D02CB01F90109950895E0917202F09126
:101410007302309729F010926F02109270020995B2
:101420000895709375026093740208957093730227
:10143000609372020895109279021092780288EEF9
:1014400093E0A0E0B0E080937A0290937B02A093B7
:101450007C02B0937D0289E391E0909377028093C0
:1014600076020895CF92DF92EF92FF920F931F932F
:10147000CF93DF937C016B018A01809171028823F5
:10148000A1F0C0E0D0E00DC0D701ED91FC91D601F4
:10149000AC0FBD1F0190F081E02DC7016C91099543
:1014A0002196C017D10780F304C0CB01642F0E949E
:1014B000220BC801DF91CF911F910F91FF90EF9008
:1014C000DF90CF900895DF93CF930F92CDB7DEB723
:1014D000FC016983809171028823C9F080917002B8
:1014E000803238F081E090E09383828320E030E026
:1014F00015C080916F02E82FF0E0E15BFD4F99810C
:1015000090838F5F80936F028093700205C0CE013D
:10151000019661E00E94220B21E030E0C9010F90AA
:10152000CF91DF9108950F93062F80914E026FE4C3
:1015300072E04091700221E00E94CD0A10926F0289
:1015400010927002109271020F91089561E00E9452
:10155000930A089510924C0210924D0210926F025D
:10156000109270020E94D80C08950F931F938C0163
:10157000862F0E94C90A85E09AE00E94420B80EE05
:1015800099E00E943D0BC8010E94AA0A1F910F9189
:101590000895880F8093BA0008950F931F93582FD2
:1015A000122F413210F081E04AC0809182028823DC
:1015B000E1F782E080938202009384028FEF8093B0
:1015C000EF021092AA024093AB02AAE8B2E0FB013C
:1015D00002C081918D938E2F861B8417D0F31092B9
:1015E000830280918302550F852B80938302809123
:1015F0008502813041F410928502809183028093AC
:10160000BB0085EC01C085EE8093BC00112321F066
:10161000809182028230E1F38091EF028F3F11F4DA
:1016200080E00DC08091EF02803211F482E007C0AB
:101630008091EF02803311F084E001C083E01F91BC
:101640000F910895482F613210F081E00895809144
:101650008202843011F082E008956093CD02ACEAFA
:10166000B2E0842F9C01F90102C081918D938E2FED
:10167000841B8617D0F380E00895909389028093AD
:1016800088020895909387028093860208951F929E
:101690000F920FB60F9211242F933F934F935F93A6
:1016A0006F937F938F939F93AF93BF93EF93FF932A
:1016B0008091B90090E0887F90708036910509F4A0
:1016C000F2C081369105CCF58832910509F47BC0D2
:1016D00089329105B4F48031910509F46FC08131EC
:1016E00091053CF4009709F447C1089709F04FC1F0
:1016F00065C08831910509F466C0809709F047C13B
:1017000082C08034910509F4A4C08134910544F469
:101710008033910509F482C0C89709F038C189C0A7
:101720008035910509F489C08835910509F496C082
:101730008834910509F02BC1AEC08839910509F4B0
:1017400013C189399105ECF48837910509F4ABC0D0
:10175000893791054CF48836910509F4A4C0803787
:10176000910509F014C19FC08838910509F4FCC0A7
:101770008039910509F49DC08038910509F007C1B1
:1017800098C0803B910509F4C6C0813B91054CF49B
:10179000803A910509F49FC0883A910509F0F7C095
:1017A000BAC0803C910509F4E3C0883C910509F476
:1017B000DFC0883B910509F0EAC0C2C08091830276
:1017C0008093BB00CFC09091AA028091AB02981782
:1017D00068F49091AA02E92FF0E0E657FD4F80816E
:1017E0008093BB009F5F9093AA02BCC0809184024B
:1017F000882309F44BC085ED8093BC008091BC0028
:1018000084FDFCCFC2C080E28093EF0285ED80931F
:10181000BC008091BC0084FDFCCFB7C080E3809306
:10182000EF0285ED8093BC008091BC0084FDFCCF6D
:10183000ACC088E38093EF029BC08091AA02909194
:10184000BB00E82FF0E0E657FD4F90838F5F809359
:10185000AA029091AA028091AB0282C08091AA0252
:101860009091BB00E82FF0E0E657FD4F90838F5F2B
:101870008093AA0280918402882341F085ED8093B1
:10188000BC008091BC0084FDFCCF7FC081E08093D0
:10189000850284EA6EC085ED8093BC008091BC0017
:1018A00084FDFCCF72C083E0809382021092EE022E
:1018B00059C08091EE02803208F056C08091EE024D
:1018C0009091BB00E82FF0E0E253FD4F90838F5FD3
:1018D0008093EE0247C08091EE02803230F4E091B6
:1018E000EE02F0E0E253FD4F108285ED8093BC00E4
:1018F0008091BC0084FDFCCF109282026091EE02C8
:10190000E0918802F09189028EEC92E070E00995F6
:101910001092EE022DC084E0809382021092CC02DD
:101920001092CD02E0918602F09187020995809194
:10193000CD02882329F481E08093CD021092AC027D
:101940009091CC02E92FF0E0E455FD4F8081809327
:10195000BB009F5F9093CC029091CC028091CD020E
:10196000981710F485EC01C085E88093BC000FC087
:1019700085EC8093BC0009C01092EF0285ED809346
:10198000BC008091BC0084FDFCCF10928202FF91CC
:10199000EF91BF91AF919F918F917F916F915F91E7
:1019A0004F913F912F910F900FBE0F901F90189560
:1019B0001092820281E0809384021092850282E17B
:1019C00061E00E94520983E161E00E945209E9EB63
:1019D000F0E080818E7F808380818D7F808388E4AA
:1019E0008093B80085E48093BC00089508958091A9
:1019F00022039091230308958091320308958091EA
:101A0000300390913103089580912A0390912B0324
:101A100008958130910559F46F5F7F4F89F48AE30F
:101A200093E066E045E020E00E9401120895892BD2
:101A300039F46F5F7F4F21F48AE393E00E948810AE
:101A4000089580E090E06FEF7FEF0E94090D089508
:101A500081E090E06FEF7FEF0E94090D0895EF9213
:101A6000FF920F931F938091F0029091F1020397E0
:101A700021F41092F1021092F0028091F002909104
:101A8000F102892BA1F50E944F082091200130918D
:101A90002101442737FD4095542FE090F202F09049
:101AA000F3020091F4021091F5022E0D3F1D401F2C
:101AB000511F2617370748075907C8F48AE393E0F0
:101AC00063E50E94CC1081E090E09093F102809356
:101AD000F0020E944F086093F2027093F302809329
:101AE000F4029093F502109221031092200380914A
:101AF000F0029091F102019709F04EC019C08AE3FB
:101B000093E00E9491109093F7028093F602209147
:101B1000200330912103F901EE0FFF1FE850FD4F24
:101B2000918380832F5F3F4F3093210320932003C5
:101B30008AE393E00E94B2101816190604F380910C
:101B4000200390912103099734F082E090E0909374
:101B5000F1028093F0020E944F0820911E01309103
:101B60001F01442737FD4095542FE090F202F0907A
:101B7000F3020091F4021091F5022E0D3F1D401F5B
:101B8000511F261737074807590730F483E090E0C4
:101B90009093F1028093F0028091F0029091F10213
:101BA000029709F07FC08091F8029091F90290931A
:101BB0002303809322034091FA028091FB02409319
:101BC0002403809325032091FC023091FD02309381
:101BD000270320932603742F60E0620F731F709316
:101BE00029036093280380E090E00E9428139B0162
:101BF000AC010E9430129B01AC0160E074E284E70A
:101C000099E40E94941220E030E040E752E40E9400
:101C1000B6130E94FC1270932B0360932A03209149
:101C2000FE023091FF02C901807F907044E09695DA
:101C300087954A95E1F790932D0380932C032F709D
:101C4000307030932F0320932E03809100039091E6
:101C500001039093310380933003809102038093BA
:101C60003203881F8827881F8093390380910403DB
:101C7000909105039093340380933303809106037E
:101C80009091070390933603809335038091080366
:101C90009091090390933803809337031092F102D7
:101CA0001092F0021F910F91FF90EF9008958AE338
:101CB00093E040E056E960E070E00E94960F0895DE
:101CC0000F931F938C01FC01108245835683678319
:101CD00070870E944F08F801618372838383948325
:101CE0001F910F910895EF92FF920F931F93CF933F
:101CF000DF93EC010E944F08E980FA800B811C8180
:101D00002D813E814F8158856E197F09800B910B83
:101D1000621773078407950710F480E018C0211537
:101D200031054105510519F08881882339F00E9459
:101D30004F0869837A838B839C8308C02E0D3F1DD7
:101D4000401F511F29833A834B835C8381E0DF91DD
:101D5000CF911F910F91FF90EF9008950F931F93D4
:101D6000CF93DF93FC01738D76957170A685B7854F
:101D70009585772329F08C91892309F454C004C0F8
:101D80008C91892309F04FC08389948920E00197C1
:101D90002FEF8F3F9207D9F7C589D689A685B785DA
:101DA000158560E031E040E050E000E0CE01202FFA
:101DB00001972FEF8F3F9207D9F78C91812311F074
:101DC000632B03C0832F80956823330F4F5F5F4FD2
:101DD0004830510559F78789908D20E001972FEF02
:101DE0008F3F9207D9F771116095809198032091E8
:101DF000990390E001968F73907030E082179307FB
:101E000079F0E0919803F0E0E85AFC4F608380910C
:101E1000980390E001968F7390708093980303C0AD
:101E2000838D8160838FDF91CF911F910F910895F2
:101E30001F920F920FB60F9211242F933F934F933F
:101E40005F936F937F938F939F93AF93BF93EF9322
:101E5000FF938091560390915703009711F00E94D1
:101E6000AE0EFF91EF91BF91AF919F918F917F91B6
:101E70006F915F914F913F912F910F900FBE0F90F7
:101E80001F9018951F920F920FB60F9211242F9347
:101E90003F934F935F936F937F938F939F93AF93F2
:101EA000BF93EF93FF938091560390915703009750
:101EB00011F00E94AE0EFF91EF91BF91AF919F91F3
:101EC0008F917F916F915F914F913F912F910F90E3
:101ED0000FBE0F901F9018951F920F920FB60F9282
:101EE00011242F933F934F935F936F937F938F931F
:101EF0009F93AF93BF93EF93FF938091560390917D
:101F00005703009711F00E94AE0EFF91EF91BF9121
:101F1000AF919F918F917F916F915F914F913F9181
:101F20002F910F900FBE0F901F901895CF92DF92B8
:101F3000EF92FF920F931F93CF93DF93EC017A01FF
:101F40008B011A8E198E188E1F8A1E8A1D8A1C8A72
:101F50001B8A20E030E06901CC0CDD1CC20ED31ED0
:101F6000B601660F771F660F771FAB014E535F4FA9
:101F7000FA0185919591A591B4918E159F05A007C1
:101F8000B107E9F4FB01EA53FF4F859194919C8BD3
:101F90008B8BFB01E853FF4F859194919E8B8D8B2A
:101FA000FB01E653FF4F85919491988F8F8BFB0136
:101FB000E453FF4F859194919A8F898F06C02F5FCC
:101FC0003F4F2D30310509F0C6CF8F89988D892B71
:101FD00009F449C04C85463108F03DC09091680035
:101FE000483010F484E005C04E3010F082E001C0AB
:101FF00081E0892B80936800483028F4EDE6F0E01A
:10200000ADE6B0E00BC04E3028F0ECE6F0E0ACE618
:10201000B0E004C0EBE6F0E0ABE6B0E05081483061
:1020200040F481E090E002C0880F991F4A95E2F7E2
:1020300010C0242F30E04E3018F42850304002C039
:102040002E50304081E090E002C0880F991F2A9501
:10205000E2F7852B8C93898D9A8D20E001972FEFE5
:102060008F3F9207D9F780915603909157038C17B1
:102070009D0781F08B8D8E7F8B8F9FB7F894109288
:1020800098038091980380939903D0935703C0934A
:1020900056039FBFDF91CF911F910F91FF90EF905B
:1020A000DF90CF900895FC014485463180F548309B
:1020B00028F4EDE6F0E0ADE6B0E00BC04E3028F4D9
:1020C000EBE6F0E0ABE6B0E004C0ECE6F0E0ACE656
:1020D000B0E05081483040F481E090E002C0880FC9
:1020E000991F4A95E2F710C0242F30E04E3018F4C3
:1020F0002850304002C02E50304081E090E002C0B5
:10210000880F991F2A95E2F7809585238C9308956F
:10211000FC0189E491E091838083CF010E945310F8
:10212000089520915603309157032817390731F449
:102130009091990380919803981719F42FEF3FEF2E
:102140000FC0E0919903F0E0E85AFC4F20818091A4
:10215000990390E001968F7390708093990330E01B
:10216000C901089520915603309157032817390764
:1021700019F020E030E00EC080919803209199037F
:1021800090E0805C9F4F821B910960E470E00E94A8
:1021900038149C01C90108950F931F93DC015996CF
:1021A0008D919C915A97892B49F481E090E0139688
:1021B0009C938E93129720E030E097C00FB7F8946D
:1021C0005B968C915B975196ED91FC91529750964E
:1021D0002C91509781FF8DC08081822B80835996EE
:1021E0008D919C915A97059620E001972FEF8F3F94
:1021F0009207D9F75B968C915B9781FF35C031E0F0
:1022000040E050E070E010E0832F90E086239723B9
:102210005196ED91FC91529750962C915097892BA5
:1022200029F0808120952823208303C08081822B80
:10223000808359968D919C915A97212F01972FEF6A
:102240008F3F9207D9F7330F4F5F5F4F48305105EB
:10225000D9F65196ED91FC915297908150968C91C0
:1022600050978095892333C031E040E050E070E022
:1022700010E0832F90E0862397235196ED91FC91F7
:10228000529750962C915097892B21F08081822B68
:10229000808304C0808120952823208359968D91C6
:1022A0009C915A97212F01972FEF8F3F9207D9F7D3
:1022B000330F4F5F5F4F48305105D9F65196ED917E
:1022C000FC915297808150969C915097892B8083E6
:1022D0000FBF59968D919C915A9720E001972FEF4F
:1022E0008F3F9207D9F721E030E0C9011F910F918C
:1022F0000895808120952823208371CF2091560353
:10230000309157032817390749F49FB7F894109272
:10231000980380919803809399039FBF089520911B
:102320005603309157032817390731F490919903D8
:1023300080919803981719F42FEF3FEF0AC0E091AE
:102340009903F0E0E85AFC4F8081282F332727FDBE
:102350003095C90108951F93CF93DF93EC01162F99
:10236000862F60E00E9413098B8D81FD04C0812FB0
:1023700061E00E9452091C87212F30E0C901865676
:102380009F4FFC0184918D872A573F4FF90164913B
:10239000E62FF0E0EE0FFF1FE458FF4F8591949178
:1023A0009F878E87DF91CF911F910895FF920F93A2
:1023B0001F938C01F62E862F61E00E9413098F2D4A
:1023C00061E00E9452098F2D90E0FC01E656FF4F1C
:1023D000E491D8015096EC9350978A579F4FFC0197
:1023E0006491E62FF0E0EE0FFF1FEE58FF4F85914E
:1023F000949152969C938E9351971F910F91FF90B9
:102400000895FF920F931F938C01F62EFC01138207
:10241000128288EE93E0A0E0B0E084839583A683E7
:10242000B78389E491E091838083148A138A168AA2
:10243000158A108E178A128E118E838D2170220FAD
:102440008C7F822B838FC801642F0E94D611C80114
:102450006F2D0E94AB111F910F91FF90089550585E
:10246000BB27AA270ED048C139D130F03ED120F089
:1024700031F49F3F11F41EF42EC10EF4E095E7FBFA
:1024800024C1E92F4AD180F3BA1762077307840782
:10249000950718F071F49EF562C10EF4E0950B2ECD
:1024A000BA2FA02D0B01B90190010C01CA01A001A6
:1024B0001124FF27591B99F0593F50F4503E68F101
:1024C0001A16F040A22F232F342F4427585FF3CF42
:1024D000469537952795A795F0405395C9F77EF413
:1024E0001F16BA0B620B730B840BBAF09150A1F05C
:1024F000FF0FBB1F661F771F881FC2F70EC0BA0FE2
:10250000621F731F841F48F4879577956795B79569
:10251000F7959E3F08F0B3CF9395880F08F0992761
:10252000EE0F9795879508950CD0E6C0DED040F069
:10253000D5D030F021F45F3F19F0C7C0511110C160
:10254000CAC0EBD098F39923C9F35523B1F3951B77
:10255000550BBB27AA2762177307840738F09F5FC4
:102560005F4F220F331F441FAA1FA9F333D00E2E33
:102570003AF0E0E830D091505040E695001CCAF7A0
:1025800029D0FE2F27D0660F771F881FBB1F261765
:1025900037074807AB07B0E809F0BB0B802DBF0138
:1025A000FF2793585F4F2AF09E3F510568F08DC07A
:1025B000D7C05F3FECF3983EDCF38695779567953F
:1025C000B795F7959F5FC9F7880F911D96958795E9
:1025D00097F90895E1E0660F771F881FBB1F621708
:1025E00073078407BA0720F0621B730B840BBA0BC6
:1025F000EE1F88F7E095089598D088F09F5790F0E7
:10260000B92F9927B751A0F0D1F0660F771F881F17
:10261000991F1AF0BA95C9F712C0B13081F09FD056
:10262000B1E008959CC0672F782F8827B85F39F0F4
:10263000B93FCCF3869577956795B395D9F73EF476
:1026400090958095709561957F4F8F4F9F4F08951E
:10265000E89409C097FB3EF490958095709561953C
:102660007F4F8F4F9F4F9923A9F0F92F96E9BB27F2
:102670009395F695879577956795B795F111F8CF6E
:10268000FAF4BB0F11F460FF1BC06F5F7F4F8F4FD9
:102690009F4F16C0882311F096E911C0772321F0CF
:1026A0009EE8872F762F05C0662371F096E8862F67
:1026B00070E060E02AF09A95660F771F881FDAF7BE
:1026C000880F9695879597F9089597F99F6780E801
:1026D00070E060E008959FEF80EC089500240A9474
:1026E0001616170618060906089500240A941216ED
:1026F0001306140605060895092E0394000C11F420
:10270000882352F0BB0F40F4BF2B11F460FF04C0CC
:102710006F5F7F4F8F4F9F4F089557FD9058440F25
:10272000551F59F05F3F71F04795880F97FB991F30
:1027300061F09F3F79F087950895121613061406ED
:10274000551FF2CF4695F1DF08C01616170618067A
:10275000991FF1CF86957105610508940895E89455
:10276000BB2766277727CB0197F908950BD0C4CFF5
:10277000B5DF28F0BADF18F0952309F0A6CFABCF6C
:102780001124EECFCADFA0F3959FD1F3950F50E04F
:10279000551F629FF001729FBB27F00DB11D639F13
:1027A000AA27F00DB11DAA1F649F6627B00DA11DB9
:1027B000661F829F2227B00DA11D621F739FB00D5F
:1027C000A11D621F839FA00D611D221F749F3327CF
:1027D000A00D611D231F849F600D211D822F762F68
:1027E0006A2F11249F5750408AF0E1F088234AF065
:1027F000EE0FFF1FBB1F661F771F881F91505040B1
:10280000A9F79E3F510570F060CFAACF5F3FECF370
:10281000983EDCF3869577956795B795F795E7959C
:102820009F5FC1F7FE2B880F911D9695879597F9AD
:102830000895629FD001739FF001829FE00DF11D0A
:10284000649FE00DF11D929FF00D839FF00D749F2A
:10285000F00D659FF00D9927729FB00DE11DF91FD6
:10286000639FB00DE11DF91FBD01CF011124089533
:1028700097FB092E07260AD077FD04D02ED006D06C
:1028800000201AF4709561957F4F0895F6F79095A2
:1028900081959F4F0895A1E21A2EAA1BBB1BFD0133
:1028A0000DC0AA1FBB1FEE1FFF1FA217B307E4072F
:1028B000F50720F0A21BB30BE40BF50B661F771F87
:1028C000881F991F1A9469F7609570958095909567
:1028D0009B01AC01BD01CF010895AA1BBB1B51E1B7
:1028E00007C0AA1FBB1FA617B70710F0A61BB70B80
:1028F000881F991F5A95A9F780959095BC01CD0125
:102900000895EE0FFF1F0590F491E02D099411E05A
:10291000C6E6D1E004C0FE010E9483142296C836A8
:08292000D107C9F7F894FFCFBD
:102928005E2C002C002C7C005468652074656D704A
:102938006572617475726520697320000301E8038C
:1029480001000E110C00000000F20597068805B979
:10295800059905E20500000000630A320AB009B9CA
:1029680009CE09DF0900000000CC109706B21091CB
:06297800108F117E11001A
:00000001FF
