:100000000C9465000C948D000C948D000C948D0064
:100010000C948D000C948D000C948D000C948D002C
:100020000C948D000C948D000C948D000C948D001C
:100030000C948D000C948D000C948D000C948D000C
:100040000C941A060C948D000C948B020C94D9021B
:100050000C948D000C948D000C948D000C948D00EC
:100060000C94D70B0C948D00000000002400270096
:100070002A0000000000250028002B0000000000DE
:1000800023002600290004040404040404040202DA
:100090000202020203030303030301020408102007
:1000A0004080010204081020010204081020000012
:1000B0000007000201000003040600000000000029
:1000C0000000DD004504170BD60011241FBECFEF42
:1000D000D8E0DEBFCDBF12E0A0E0B1E0E0EEF2E29A
:1000E00002C005900D92A639B107D9F714E0A6E930
:1000F000B2E001C01D92A636B107E1F710E0C8ECEE
:10010000D0E004C02297FE010E945F11C23CD107DB
:10011000C9F70E949B040C9463110C940000FB012E
:10012000DC0102C001900D9241505040D8F7089573
:10013000FB01DC0101900D920020E1F7089581E0C0
:1001400080939602089581309105D1F46F5F7F4FBF
:1001500061F50E946206709398026093970286EAA6
:1001600092E044EF51E060E070E00E94A71080EB65
:1001700092E040E050E060E070E00E947610089568
:10018000892B99F46F5F7F4F81F487ED92E00E9495
:10019000900880ED92E00E94900889EC92E00E9425
:1001A000900882EC92E00E949008089580E090E030
:1001B0006FEF7FEF0E94A300089581E090E06FEF62
:1001C0007FEF0E94A30008958BED93E060E10E9411
:1001D0005F0B08958BED93E00E94B50A803181F0AA
:1001E000813118F48930B9F505C0833149F187317F
:1001F00091F510C08BED93E060E10E945F0B0895D4
:1002000086E693E060E071E00E94170686E693E0E0
:100210000E94D40486E693E064E171E00E94170630
:100220008BED93E00E94B50ABC0186E693E04AE0BC
:1002300050E00E94040686E693E00E94D4040895EC
:100240008BED93E00E94B50A813019F480939902F6
:10025000089510929902089582E00E94AB069C01D5
:100260009093A3028093A2028091A4029091A50290
:100270002817390779F186E693E068E271E00E9479
:10028000170686E693E060EB4AE050E00E94940592
:1002900086E693E06BE271E00E9417066091A2028D
:1002A0007091A30286E693E04AE050E00E94830545
:1002B00086E693E06DE271E00E94170686E693E021
:1002C0000E94D4048091A2029091A3029093A5026F
:1002D0008093A4020895FF920F931F93F82E80E05D
:1002E0000E94AB060DE210E09C01209FC001219FFF
:1002F000900D309F900D112460E074E00E94141165
:1003000070939B0260939A0281E00E94AB069C016D
:10031000209FC001219F900D309F900D112460E01F
:1003200074E00E94141170939F0260939E022091CA
:100330009A0230919B0280919C0290919D02281715
:10034000390711F4FF2059F130939D0220939C024C
:1003500086E693E068E271E00E94170686E693E085
:1003600060EA4AE050E00E94940586E693E06BE282
:1003700071E00E94170660919A0270919B0286E6D6
:1003800093E04AE050E00E94830586E693E06DE248
:1003900071E00E94170686E693E00E94D404209143
:1003A0009E0230919F028091A0029091A102281795
:1003B000390711F4FF2059F13093A1022093A002D4
:1003C00086E693E068E271E00E94170686E693E015
:1003D00061EA4AE050E00E94940586E693E06BE211
:1003E00071E00E94170660919E0270919F0286E65E
:1003F00093E04AE050E00E94830586E693E06DE2D8
:1004000071E00E94170686E693E00E94D4041F91D3
:100410000F91FF90089588E00E946007892B71F08A
:100420008091AF02882351F481E08093AF0286E689
:1004300093E06AEA4AE050E00E94A60588E00E9444
:100440006007892B69F48091AF02882349F01092EC
:10045000AF0286E693E069EA4AE050E00E94A60512
:1004600086EA92E00E94BA10882329F080E00E9478
:100470006B010E942C0180EB92E00E945D0F8BEDDE
:1004800093E00E94AC0A892B11F00E94EA001092BE
:100490009602809199028823B9F00E946206209109
:1004A00097023091980240E050E0621B730B840B7E
:1004B000950B653F71058105910530F00E9462063C
:1004C000709398026093970208950F931F9384E0AE
:1004D00061E00E940C070BED13E0C8016AE00E9486
:1004E0009A0B87E060E00E94CD06C8016FE970E0DA
:1004F0000E940D0BC80164EE70E00E94120B86E6AC
:1005000093E040E052EC61E070E00E9414031F9120
:100510000F91089508951F920F920FB60F92112414
:100520002F933F934F938F939F93EF93FF938091DC
:10053000C00082FD1DC04091C60020911E03309175
:100540001F032F5F3F4F2F733070809120039091D6
:1005500021032817390771F0E0911E03F0911F0362
:10056000E252FD4F408330931F0320931E0302C0CD
:100570008091C600FF91EF919F918F914F913F9194
:100580002F910F900FBE0F901F901895E09172035E
:10059000F0917303E05CFF4F819191912081318153
:1005A000821B930B8F739070892B11F00E948A022B
:1005B00008951F920F920FB60F9211242F933F931D
:1005C0008F939F93EF93FF93209162033091630386
:1005D00080916403909165032817390731F4809165
:1005E000C1008F7D8093C10014C0E0916403F0913D
:1005F0006503EE5DFC4F208180916403909165035B
:1006000001968F7390709093650380936403209399
:10061000C600FF91EF919F918F913F912F910F9085
:100620000FBE0F901F901895AF92BF92DF92EF927E
:10063000FF920F931F93CF93DF93EC017A018B010D
:10064000DD24403081EE580780E0680780E07807BD
:1006500011F0DD24D39491E0A92EB12CEC89FD8911
:10066000DD2069F0C50108A002C0880F991F0A9417
:10067000E2F7808360E079E08DE390E005C01082CE
:1006800060E874E88EE190E0A80197010E942711CC
:10069000215030404040504056954795379527951A
:1006A00080E12030380720F0DD2011F0DD24D6CFA6
:1006B000E889F9893083EA89FB89208319A2EE89C8
:1006C000FF89408121E030E0C9010C8C02C0880F15
:1006D000991F0A94E2F7482B4083EE89FF894081F5
:1006E000C9010D8C02C0880F991F0A94E2F7482BAC
:1006F0004083EE89FF894081C9010E8C02C0880FBA
:10070000991F0A94E2F7482B4083EE89FF89808184
:100710000F8C02C0220F331F0A94E2F72095282382
:100720002083DF91CF911F910F91FF90EF90DF9089
:10073000BF90AF900895DC011C96ED91FC911D9740
:10074000E05CFF4F2191319180819181281B390B11
:100750002F733070C9010895DC011C96ED91FC9156
:100760001D97E05CFF4F20813181E054F040DF01B4
:10077000AE5BBF4F8D919C9111972817390719F4E3
:100780002FEF3FEF07C08D919C91E80FF91F8081FB
:10079000282F30E0C9010895DC011C96ED91FC91F1
:1007A0001D97E05CFF4F20813181E054F040DF0174
:1007B000AE5BBF4F8D919C9111972817390719F4A3
:1007C0002FEF3FEF10C08D919C911197E80FF91F0B
:1007D00020818D919C91119701968F739070119645
:1007E0009C938E9330E0C9010895DC0191968C9121
:1007F0009197882339F05496ED91FC91559780811B
:1008000086FFF9CF91961C920895CF93DF93EC0168
:10081000EE85FF85E05CFF4F20813181E054F040A0
:100820002F5F3F4F2F733070DF01AE5BBF4F8D9155
:100830009C91119728173907D1F3E05CFF4F808115
:100840009181E054F040E80FF91F6083EE85FF8549
:10085000E05CFF4F31832083EE89FF89208181E0B6
:1008600090E00F8C02C0880F991F0A94E2F7282BA2
:10087000208381E089A3EC89FD8980818064808365
:1008800081E090E0DF91CF9108951092690310927A
:10089000680388EE93E0A0E0B0E080936A03909351
:1008A0006B03A0936C03B0936D0389E792E0909380
:1008B0006703809366038EED92E0909373038093B9
:1008C000720382E293E0909375038093740385EC46
:1008D00090E0909377038093760384EC90E090937C
:1008E00079038093780380EC90E090937B0380936E
:1008F0007A0381EC90E090937D0380937C0382ECFB
:1009000090E090937F0380937E0386EC90E0909339
:1009100081038093800384E08093820383E080934B
:10092000830387E08093840385E08093850381E0DF
:10093000809386030895CF93DF930E9470060E94F0
:100940006502C6ECD2E00E940B022097E1F30E9400
:10095000C602F9CFCF92DF92EF92FF920F931F93CF
:10096000CF93DF937C016B018A01C0E0D0E00FC020
:10097000D6016D916D01D701ED91FC910190F0814F
:10098000E02DC7010995C80FD91F0150104001156E
:10099000110571F7CE01DF91CF911F910F91FF905B
:1009A000EF90DF90CF900895EF92FF920F931F93F7
:1009B0008C01DC01ED91FC910190F081E02D6DE066
:1009C00009957C01D801ED91FC910190F081E02D19
:1009D000C8016AE009959C012E0D3F1DC9011F91B8
:1009E0000F91FF90EF900895CF93DF93EC01611585
:1009F000710519F420E030E00FC0DB010D900020FC
:100A0000E9F71197A61BB70BE881F9810280F38102
:100A1000E02DAD0109959C01C901DF91CF910895A9
:100A20004F925F927F928F929F92AF92BF92CF929E
:100A3000DF92EF92FF920F931F93DF93CF93CDB787
:100A4000DEB7A1970FB6F894DEBF0FBECDBF2C0165
:100A5000742ECB01223008F42AE019A231E2C32E11
:100A6000D12CCC0EDD1E822E9924AA24BB24672D06
:100A7000752FA50194010E94271179018A01C801EF
:100A8000B701A50194010E94F510472D461B08945B
:100A9000C108D1084A3014F4405D01C0495CF60138
:100AA0004083E114F1040105110521F07E2C5F2D36
:100AB000C801DDCFC201B6010E94F404A1960FB6B1
:100AC000F894DEBF0FBECDBFCF91DF911F910F9184
:100AD000FF90EF90DF90CF90BF90AF909F908F905E
:100AE0007F905F904F900895DC012115310541F40E
:100AF000ED91FC910190F081E02D642F099508950E
:100B00000E9410050895EF92FF920F931F939A0190
:100B10007B0100E010E0B801A7010E9474051F915D
:100B20000F91FF90EF900895EF92FF920F931F9314
:100B30009A01E62EFF2400E010E0B801A7010E9410
:100B400074051F910F91FF90EF900895CF92DF925F
:100B5000EF92FF920F931F936C01E62E9A01FF24F0
:100B600000E010E0B801A7010E9474058C01C601E5
:100B70000E94D404080F191FC8011F910F91FF9004
:100B8000EF90DF90CF900895CF92DF92EF92FF9297
:100B90000F931F93CF93DF93EC016A017B01211523
:100BA000310541F4E881F9810190F081E02D642F55
:100BB00009951FC02A303105D1F477FF17C0E881AD
:100BC000F9810190F081E02D6DE209958C014427B7
:100BD0005527BA014C195D096E097F09CE012AE03B
:100BE0000E9410059801280F391F04C02AE00E94B6
:100BF00010059C01C901DF91CF911F910F91FF90CA
:100C0000EF90DF90CF900895EF92FF920F931F9394
:100C10007B019A010027F7FC0095102FB801A7016E
:100C20000E94C4051F910F91FF90EF9008950E94BC
:100C3000F40408951F920F920FB60F9211242F9370
:100C40003F938F939F93AF93BF9380918C03909129
:100C50008D03A0918E03B0918F0330919003019684
:100C6000A11DB11D232F2D5F2D3720F02D5701968B
:100C7000A11DB11D2093900380938C0390938D034D
:100C8000A0938E03B0938F03809188039091890382
:100C9000A0918A03B0918B030196A11DB11D809391
:100CA000880390938903A0938A03B0938B03BF9129
:100CB000AF919F918F913F912F910F900FBE0F9009
:100CC0001F9018958FB7F89420918C0330918D0365
:100CD00040918E0350918F038FBFB901CA010895CF
:100CE000789484B5826084BD84B5816084BD85B507
:100CF000826085BD85B5816085BDEEE6F0E08081CE
:100D000081608083E1E8F0E01082808182608083EE
:100D1000808181608083E0E8F0E080818160808371
:100D2000E1EBF0E0808184608083E0EBF0E08081A3
:100D300081608083EAE7F0E0808184608083808145
:100D400082608083808181608083808180688083ED
:100D50001092C1000895982F8E3008F09E50977021
:100D600080916E028295880F880F807C892B8093FA
:100D70007C0080917A00806480937A0080917A0070
:100D800086FDFCCF2091780040917900942F80E07F
:100D900030E0282B392BC9010895CF93DF93482FDA
:100DA00050E0CA0186569F4FFC0134914A575F4F6D
:100DB000FA018491882369F190E0880F991FFC0162
:100DC000E859FF4FA591B491FC01EE58FF4FC59132
:100DD000D491662351F42FB7F8948C91932F90956A
:100DE00089238C93888189230BC0623061F42FB7EB
:100DF000F8948C91932F909589238C938881832BE1
:100E000088832FBF06C09FB7F8948C91832B8C9357
:100E10009FBFDF91CF910895482F50E0CA018255BE
:100E20009F4FFC012491CA0186569F4FFC0194916B
:100E30004A575F4FFA013491332309F440C022230B
:100E400051F1233071F0243028F42130A1F0223008
:100E500011F514C02630B1F02730C1F02430D9F498
:100E600004C0809180008F7703C0809180008F7DC7
:100E70008093800010C084B58F7702C084B58F7DC9
:100E800084BD09C08091B0008F7703C08091B0000D
:100E90008F7D8093B000E32FF0E0EE0FFF1FEE5840
:100EA000FF4FA591B4912FB7F894662321F48C914C
:100EB0009095892302C08C91892B8C932FBF089524
:100EC000682F70E0CB0182559F4FFC012491CB012C
:100ED00086569F4FFC0144916A577F4FFB019491C6
:100EE000992319F420E030E03CC0222351F1233053
:100EF00071F0243028F42130A1F0223011F514C013
:100F00002630B1F02730C1F02430D9F404C08091EC
:100F100080008F7703C0809180008F7D8093800058
:100F200010C084B58F7702C084B58F7D84BD09C0A1
:100F30008091B0008F7703C08091B0008F7D809347
:100F4000B000892F90E0880F991F84589F4FFC01B3
:100F5000A591B4918C9120E030E0842311F021E040
:100F600030E0C9010895FC019B01848195816817D7
:100F7000790728F4608171816115710529F4109257
:100F8000910361E973E002C0620F731FCB01089502
:100F90000F931F93CF93DF93EC018B016F5F7F4F14
:100FA000888199810E94CB09009711F480E005C0E7
:100FB000998388831B830A8381E0DF91CF911F91FE
:100FC0000F910895CF93DF93EC0188819981892B4C
:100FD00029F08A819B818617970760F4CE010E94D1
:100FE000C807882341F08C819D81892B19F4E88101
:100FF000F981108281E0DF91CF910895EF92FF9205
:101000000F931F93CF93DF93EC017B016C817D8164
:10101000E114F104C1F04115510599F08A01060F60
:10102000171FB8010E94E207882369F0888199811F
:101030002C813D81820F931FB7010E9498001D8370
:101040000C8381E001C080E0DF91CF911F910F916F
:10105000FF90EF9008956115710511F480E00895F7
:10106000DB010D900020E9F71197A61BB70BAD012E
:101070000E94FE070895FB016081718144815581C2
:101080000E94FE070895CF93DF93EC018881998138
:10109000009711F00E943309198218821D821C8268
:1010A0001B821A82DF91CF910895EF92FF920F93E6
:1010B0001F93CF93DF93EC017B018A01BA010E9459
:1010C000E207882321F4CE010E94430807C01D8354
:1010D0000C8388819981B7010E949800CE01DF912D
:1010E000CF911F910F91FF90EF900895CF93DF93D1
:1010F000EC01198218821B821A821D821C821E82B8
:101100006115710551F0DB010D900020E9F7119791
:10111000A61BB70BAD010E945508DF91CF91089532
:10112000FC01808191810E94330908950F931F93E0
:10113000CF93DF93BC018230910510F462E070E040
:10114000E0916404F0916504A0E0B0E040E050E07C
:1011500024C08081918186179707D0F08617970762
:1011600071F482819381109729F013969C938E934A
:1011700012972CC0909365048093640427C0411596
:10118000510519F08417950718F4EF018D01AC0192
:10119000DF01828193819C01F9013097D1F64115DD
:1011A0005105F9F0CA01861B970B8430910580F434
:1011B0008A819B810115110521F0F80193838283B7
:1011C00004C09093650480936404FE01329645C088
:1011D000FE01E80FF91F6193719302979983888349
:1011E0003CC08091620490916304892B41F480910A
:1011F0007102909172029093630480936204409113
:101200007302509174024115510541F44DB75EB718
:1012100080916F0290917002481B590B20916204DB
:101220003091630424173507B0F4CA01821B930B75
:101230008617970780F0AB014E5F5F4F84179507C5
:1012400050F0420F531F5093630440936204F9011E
:101250006193719302C0E0E0F0E0CF01DF91CF91A4
:101260001F910F910895CF93DF939C01009709F48C
:101270008FC0EC0122971B821A82609164047091E6
:1012800065046115710581F488819981820F931F2E
:1012900020916204309163042817390739F5D093FF
:1012A0006304C093620474C0DB0140E050E0AC17FB
:1012B000BD0708F1BB83AA83FE0121913191E20FA2
:1012C000F31FAE17BF0779F48D919C911197280FEA
:1012D000391F2E5F3F4F3983288312968D919C9141
:1012E00013979B838A834115510571F4D09365044C
:1012F000C09364044DC012968D919C911397AD01DB
:10130000009711F0DC01D3CFDA011396DC93CE9372
:101310001297FA0121913191E20FF31FCE17DF07E7
:1013200069F488819981280F391F2E5F3F4FFA0198
:10133000318320838A819B8193838283E0E0F0E084
:10134000DB0112968D919C911397009719F0BC01C7
:10135000FD01F6CFAB014E5F5F4FDB018D919C919C
:10136000840F951F20916204309163042817390778
:1013700079F4309729F4109265041092640402C045
:10138000138212824250504050936304409362048F
:10139000DF91CF9108956F927F928F929F92AF923B
:1013A000BF92CF92DF92EF92FF920F931F93CF9352
:1013B000DF938C01009729F4CB010E9496088C01E1
:1013C000BBC08EEFE82E8FEFF82EE00EF11E480125
:1013D000860E971E8E149F0408F4ACC0D7014D9161
:1013E0005C91119746175707B8F04530510508F43E
:1013F000A3C0CA0104978617970708F49DC04250FE
:101400005040461B570BF401419351936D937C93CD
:10141000CF010E94330990C05B01A41AB50A3801BC
:10142000640E751EA0916404B0916504CC24DD2483
:10143000E0E0F0E047C0A615B705A9F5CD91DC9135
:101440001197CE0102968A159B0568F1CE018A1983
:101450009B09029612962C91129713963C91059730
:1014600058F0F40122833383CA19DB09D183C08386
:10147000D7016D937C9309C04E5F5F4F4C0F5D1F8A
:10148000F70151834083C901FC01C114D10431F03B
:10149000D6011396FC93EE9312974EC0F093650419
:1014A000E093640449C08D919C911197E817F90766
:1014B00008F4FC016D0112968C91129713969C9181
:1014C0009C01D901109709F0B6CF809162049091E8
:1014D000630486159705E9F4E617F707D0F4209121
:1014E0007302309174022115310541F42DB73EB7D6
:1014F00080916F0290917002281B390B821693061F
:10150000C8F49092630480926204F701718360834F
:1015100013C0CB010E949608EC01009759F0D70147
:101520004D915C91B8010E948F00C8010E9433095F
:101530008E0102C000E010E0C801DF91CF911F9141
:101540000F91FF90EF90DF90CF90BF90AF909F9062
:101550008F907F906F9008952091B30330E0809139
:10156000B203281B3109C90108954091B20380914B
:10157000B303481718F02FEF3FEF0AC0E42FF0E055
:10158000EE56FC4F8081282F30E04F5F4093B2032E
:10159000C9010895E091B2038091B303E81718F0F0
:1015A000EFEFFFEF06C0F0E0EE56FC4F8081E82F32
:1015B000F0E0CF0108950895AC012091D903309156
:1015C000DA0321153105E1F09091B2038091B30364
:1015D0009817B0F090E008C0FA01EA0FFB1F808175
:1015E000AE56BC4F8C939F5FA92FB0E0A617B707EC
:1015F0009CF31092B2036093B303CB01F9010995F8
:101600000895E091D703F091D803309729F0109214
:10161000D4031092D503099508957093DA0360936B
:10162000D90308957093D8036093D7030895109257
:10163000DE031092DD0388EE93E0A0E0B0E080933B
:10164000DF039093E003A093E103B093E20389E802
:1016500092E09093DC038093DB030895CF92DF92B6
:10166000EF92FF920F931F93CF93DF937C016B0157
:101670008A018091D6038823A1F0C0E0D0E00DC09C
:10168000D701ED91FC91D601AC0FBD1F0190F08107
:10169000E02DC7016C9109952196C017D10780F301
:1016A00004C0CB01642F0E94B20BC801DF91CF911F
:1016B0001F910F91FF90EF90DF90CF900895DF93EF
:1016C000CF930F92CDB7DEB7FC0169838091D6032B
:1016D0008823C9F08091D503803238F081E090E012
:1016E0009383828320E030E015C08091D403E82FFB
:1016F000F0E0EC54FC4F998190838F5F8093D4038A
:101700008093D50305C0CE01019661E00E94B20B23
:1017100021E030E0C9010F90CF91DF910895109240
:10172000B2031092B3031092D4031092D5030E9417
:10173000680D08950F931F938C01862F0E94AE0BA6
:1017400081E09BE00E94D20B8CED9AE00E94CD0BD1
:10175000C8010E948F0B1F910F910895880F8093ED
:10176000BA000895482F613210F081E00895809109
:10177000E703843011F082E0089560933204A1E120
:10178000B4E0842F9C01F90102C081918D938E2FCA
:10179000841B8617D0F380E008959093EE03809326
:1017A000ED0308959093EC038093EB0308951F924B
:1017B0000F920FB60F9211242F933F934F935F9385
:1017C0006F937F938F939F93AF93BF93EF93FF9309
:1017D0008091B90090E0887F90708036910509F47F
:1017E000F2C081369105CCF58832910509F47BC0B1
:1017F00089329105B4F48031910509F46FC08131CB
:1018000091053CF4009709F447C1089709F04FC1CE
:1018100065C08831910509F466C0809709F047C119
:1018200082C08034910509F4A4C08134910544F448
:101830008033910509F482C0C89709F038C189C086
:101840008035910509F489C08835910509F496C061
:101850008834910509F02BC1AEC08839910509F48F
:1018600013C189399105ECF48837910509F4ABC0AF
:10187000893791054CF48836910509F4A4C0803766
:10188000910509F014C19FC08838910509F4FCC086
:101890008039910509F49DC08038910509F007C190
:1018A00098C0803B910509F4C6C0813B91054CF47A
:1018B000803A910509F49FC0883A910509F0F7C074
:1018C000BAC0803C910509F4E3C0883C910509F455
:1018D000DFC0883B910509F0EAC0C2C08091E803EF
:1018E0008093BB00CFC090910F0480911004981793
:1018F00068F490910F04E92FF0E0E151FC4F8081F2
:101900008093BB009F5F90930F04BCC08091E9035C
:10191000882309F44BC085ED8093BC008091BC0006
:1019200084FDFCCFC2C080E28093540485ED809397
:10193000BC008091BC0084FDFCCFB7C080E38093E5
:10194000540485ED8093BC008091BC0084FDFCCFE5
:10195000ACC088E3809354049BC080910F049091A5
:10196000BB00E82FF0E0E151FC4F90838F5F809344
:101970000F0490910F048091100482C080910F0495
:101980009091BB00E82FF0E0E151FC4F90838F5F16
:1019900080930F048091E903882341F085ED8093C3
:1019A000BC008091BC0084FDFCCF7FC081E08093AF
:1019B000EA0384EA6EC085ED8093BC008091BC0090
:1019C00084FDFCCF72C083E08093E7031092530440
:1019D00059C080915304803208F056C0809153045E
:1019E0009091BB00E82FF0E0ED5CFB4F90838F5FA0
:1019F0008093530447C080915304803230F4E091C7
:101A00005304F0E0ED5CFB4F108285ED8093BC0049
:101A10008091BC0084FDFCCF1092E70360915304D9
:101A2000E091ED03F091EE0383E394E070E009951B
:101A3000109253042DC084E08093E7031092310488
:101A400010923204E091EB03F091EC030995809140
:101A50003204882329F481E0809332041092110427
:101A600090913104E92FF0E0EF5EFB4F808180938D
:101A7000BB009F5F909331049091310480913204B8
:101A8000981710F485EC01C085E88093BC000FC066
:101A900085EC8093BC0009C01092540485ED8093BE
:101AA000BC008091BC0084FDFCCF1092E703FF9145
:101AB000EF91BF91AF919F918F917F916F915F91C6
:101AC0004F913F912F910F900FBE0F901F9018953F
:101AD0001092E70381E08093E9031092EA0382E128
:101AE00061E00E940C0783E161E00E940C07E9EBD2
:101AF000F0E080818E7F808380818D7F808388E489
:101B00008093B80085E48093BC00089580E090E065
:101B1000089584E061E00E94CD0684E060E00E94C8
:101B20000C070895CF92DF92EF92FF921F93CF930D
:101B3000DF93162F6A01790186E693E06FEF0E942A
:101B4000050486E693E06F2D0E94050486E693E087
:101B50006E2D0E94050486E693E06EEF0E94050458
:101B600086E693E0612F0E940504C0E0D0E009C042
:101B7000F601EC0FFD1F86E693E060810E940504EC
:101B80002196CE15DF05A0F3DF91CF911F91FF9035
:101B9000EF90DF90CF9008950F931F93CF93DF9333
:101BA000EC01062F142F862F61E00E94CD0660E025
:101BB000111161E0802F0E940C07CE0165E040E02A
:101BC00050E020E030E00E94920DDF91CF911F9114
:101BD0000F910895EF92FF921F93DF93CF930F928F
:101BE000CDB7DEB77C01162F862F60E00E94CD06B0
:101BF000812F0E94600719821816190614F481E0DB
:101C00008983C70164E0AE014F5F5F4F21E030E0A0
:101C10000E94920D0F90CF91DF911F91FF90EF9056
:101C200008950F931F93CF93DF938C01DB01842FD3
:101C3000E801E885F985B901AD010995C80163E0BE
:101C400040E050E020E030E00E94920DDF91CF9123
:101C50001F910F910895CF92DF92EF92FF920F9311
:101C60001F93DF93CF9300D0CDB7DEB76C01862FE3
:101C7000D6011696ED91FC9117977E010894E11C10
:101C8000F11CB70140E050E009958C01FC01908106
:101C9000818189839A83C60162E0A70122E030E056
:101CA0000E94920DC8010E9433090F900F90CF91AE
:101CB000DF911F910F91FF90EF90DF90CF900895EB
:101CC0000F931F93CF93DF938C01DB01842FE801E7
:101CD000EC81FD81B901AD010995C80161E040E0E9
:101CE00050E020E030E00E94920DDF91CF911F91F3
:101CF0000F91089560E040E050E020E030E00E9465
:101D0000920D0895CF92DF92EF92FF920F931F935F
:101D1000DF93CF93CDB7DEB727970FB6F894DEBF2A
:101D20000FBECDBF7C018E010F5F1F4FC8016CE05D
:101D300072E00E947608C8016DE072E00E942B08F4
:101D400082E190E0E80EF91EC801B7010E943B084D
:101D5000C80167E172E00E942B08C8016AE172E0E5
:101D60000E942B0887E090E0E80EF91EC801B70139
:101D70000E943B08C80167E172E00E942B08C8017D
:101D800066E272E00E942B0887E090E0E80EF91E00
:101D9000C801B7010E943B08C80164E372E00E94D9
:101DA0002B08C80167E372E00E942B0887E090E0EF
:101DB000E80EF91EC801B7010E943B08C80162E4A1
:101DC00072E00E942B08CD80DE8086E693E06FEF04
:101DD0000E94050486E693E06D2D0E94050486E6C8
:101DE00093E06C2D0E94050486E693E06EEF0E945E
:101DF000050486E693E066E00E940504EE24FF24D5
:101E000010C0C801B7010E94B307FC0160817727A9
:101E100067FD709586E693E00E9405040894E11C36
:101E2000F11CEC14FD0468F3C8010E949008279689
:101E30000FB6F894DEBF0FBECDBFCF91DF911F91DB
:101E40000F91FF90EF90DF90CF9008950F931F9325
:101E5000F8014330E1F0443028F4413079F0423069
:101E600090F409C04530E1F04530B0F04630E9F07B
:101E70004F3F01F51DC00E947A0E1CC0422F9801F1
:101E80000E94600E17C0622F0E942B0E13C0422FBB
:101E900098010E94110E0EC0622F0E94EA0D0AC026
:101EA000622F40810E94CC0D05C00E94820E02C0AC
:101EB0000E94890D1F910F9108956F927F928F92CA
:101EC0009F92AF92BF92CF92DF92EF92FF920F93C9
:101ED0001F93CF93DF93EC010E94620620915C0474
:101EE00030915D0440915E0450915F0426173707DE
:101EF0004807590750F48091600490916104892B40
:101F000021F010926104109260040E9462066053F6
:101F1000784F8F4F9F4F60935C0470935D04809364
:101F20005E0490935F0473E0672E712C65E0862E4B
:101F3000912C54E0A52EB12C41E0C42ED12C32E0DE
:101F4000E32EF12CA3C08091600490916104823053
:101F50009105C1F18330910534F4009781F0019728
:101F600009F08FC022C08430910509F453C0843039
:101F700091050CF444C0059709F083C056C086E66D
:101F800093E00E94CC038F3F910509F07AC0D09274
:101F90006104C092600480915604909157040097A8
:101FA00009F46FC00E9433096CC086E693E00E947A
:101FB000CC0310925A0480935B04F0926104E09287
:101FC00060045FC000915A0410915B0486E693E0C0
:101FD0000E94CC0390E0802B912B90935B04809324
:101FE0005A0470926104609260040E949608909373
:101FF000570480935604009709F043C03EC086E61C
:1020000093E00E94CC0380935904B0926104A092A3
:10201000600437C086E693E00E94CC0380935804A6
:1020200090926104809260042CC0809155040091CC
:10203000560410915704080F111D86E693E00E9484
:10204000CC03F8018083809155048F5F8093550401
:1020500060915A0470915B0490E08617970788F0AE
:102060000091560410915704CE01409159042091DB
:1020700058040E94260F1092550410926104109289
:1020800060048881998101969983888386E693E02C
:102090000E949B03892B09F056CFDF91CF911F91AE
:1020A0000F91FF90EF90DF90CF90BF90AF909F90F7
:1020B0008F907F906F9008950F931F93182F092F83
:1020C00086E693E00E941403212F302FC901FC0102
:1020D00080E090E026E83DE033832283019632964B
:1020E00088309105C9F71F910F910895EF92FF92E3
:1020F0000F931F93CF93DF93EC017A018B014296EC
:102100006CE072E00E947608CE0149966CE072E0C5
:102110000E947608CE0180966CE072E00E947608FC
:10212000CE0187966CE072E00E947608E114F1041B
:102130000105110529F0CE01B801A7010E945C102C
:10214000DF91CF911F910F91FF90EF9008950F9322
:102150001F938C01FC01108245835683678370872F
:102160000E946206F80161837283838394831F91C6
:102170000F910895EF92FF920F931F93CF93DF93E8
:10218000EC010E946206E980FA800B811C812D819E
:102190003E814F8158856E197F09800B910B621724
:1021A00073078407950710F480E018C021153105E6
:1021B0004105510519F08881882339F00E94620693
:1021C00069837A838B839C8308C02E0D3F1D401F3B
:1021D000511F29833A834B835C8381E0DF91CF9148
:1021E0001F910F91FF90EF900895629FD001739F10
:1021F000F001829FE00DF11D649FE00DF11D929FA3
:10220000F00D839FF00D749FF00D659FF00D9927E1
:10221000729FB00DE11DF91F639FB00DE11DF91F05
:10222000BD01CF011124089597FB092E07260AD07E
:1022300077FD04D02ED006D000201AF47095619559
:102240007F4F0895F6F7909581959F4F0895A1E2ED
:102250001A2EAA1BBB1BFD010DC0AA1FBB1FEE1F20
:10226000FF1FA217B307E407F50720F0A21BB30B6B
:10227000E40BF50B661F771F881F991F1A9469F7E7
:1022800060957095809590959B01AC01BD01CF0143
:102290000895AA1BBB1B51E107C0AA1FBB1FA617AD
:1022A000B70710F0A61BB70B881F991F5A95A9F7FF
:1022B00080959095BC01CD010895EE0FFF1F05900C
:1022C000F491E02D099410E0C8ECD0E004C0FE01C8
:1022D0000E945F112296CA3CD107C9F7F894FFCF3C
:1022E00050696E67207265706C79207265636569EC
:1022F000766564005468652074656D7065726174FC
:1023000075726520697320005E2C002C002C7C0007
:1023100044726976657220736561742073657420F8
:10232000746F20004472697665722077696E646FFD
:1023300077207570004472697665722077696E64E3
:102340006F7720646F776E004472697665722077CC
:10235000696E646F772073746F700050617373657A
:102360006E67657220736561742073657420746F85
:10237000200050617373656E6765722077696E64C3
:102380006F772075700050617373656E676572209A
:1023900077696E646F7720646F776E005061737336
:1023A000656E6765722077696E646F772073746FEE
:1023B0007000526561722077696E646F7720646582
:1023C00066726F737465722073657420746F200079
:1023D000576970696E67207468652077696E646FED
:1023E000770024242400552C002C4E00007B226E04
:1023F000616D65223A2200222C0022766572736993
:102400006F6E223A220022736572766963657322C9
:102410003A205B005D2C00226C696E6B73223A20BF
:102420005B005D7D002C2000222C20226C696E6BED
:10243000223A2200227D007B20226964223A202257
:1024400000222C202270696E7322203A2200018023
:102450000066040000000000000504AA049B03CCF1
:1024600003AC03F503000000005F0B2E0BAC0AB5B4
:062470000ACA0ADB0A00A3
:00000001FF
