:100000000C9464000C948C000C948C000C948C0068
:100010000C948C000C948C000C948C000C948C0030
:100020000C948C000C948C000C948C000C948C0020
:100030000C948C000C948C000C948C000C948C0010
:100040000C9427060C948C000C9498020C94E602F5
:100050000C948C000C948C000C948C000C948C00F0
:100060000C9467090C948C00000000002400270009
:100070002A0000000000250028002B0000000000DE
:1000800023002600290004040404040404040202DA
:100090000202020203030303030301020408102007
:1000A0004080010204081020010204081020000012
:1000B0000007000201000003040600000000000029
:1000C0000000920052043B0811241FBECFEFD8E07D
:1000D000DEBFCDBF11E0A0E0B1E0E8EAF7E102C089
:1000E00005900D92A234B107D9F712E0A2E4B1E075
:1000F00001C01D92A23DB107E1F710E0C8ECD0E0CD
:1001000004C02297FE010E94CE0BC23CD107C9F762
:100110000E94A8040C94D20B0C94000081E0809300
:10012000420108950E946F06709344016093430159
:1001300082E591E044EF51E060E070E00E94160B30
:10014000089588E592E060E10E94830808951F9376
:1001500010E019C0E12FF0E0E25EFE4F88E592E08A
:1001600060810E94C60788E592E069E00E948308EA
:1001700088E592E00E94C60865E070E080E090E0CB
:100180000E947D061F5F80911C01181718F31F91B4
:10019000089588E592E00E94D907803199F0813175
:1001A00020F4893009F054C007C0833109F445C0F8
:1001B000873109F04DC02BC088E592E060E10E94D4
:1001C0008308089583EE91E060E071E00E942406C8
:1001D00088E592E00E94D907BC0183EE91E04AE0F5
:1001E00050E00E94110683EE91E063E071E00E940E
:1001F000240683EE91E060E14AE050E00E94A10510
:1002000083EE91E065E071E00E94240611C083EE68
:1002100091E068E071E00E94240688E592E00E9487
:10022000D907BC0183EE91E04AE050E00E9411063C
:1002300083EE91E00E94E104089588E592E00E9437
:10024000D907813019F48093450108951092450132
:10025000089582E00E9411079C0190934F018093C2
:100260004E0180915001909151012817390779F181
:1002700083EE91E060E071E00E94240683EE91E05D
:1002800060EB4AE050E00E94A10583EE91E063E05C
:1002900071E00E94240660914E0170914F0183EE3F
:1002A00091E04AE050E00E94900583EE91E065E025
:1002B00071E00E94240683EE91E00E94E1048091A7
:1002C0004E0190914F0190935101809350010895F8
:1002D000FF920F931F93F82E80E00E9411070DE20A
:1002E00010E09C01209FC001219F900D309F900D38
:1002F000112460E074E00E94830B709347016093C7
:10030000460181E00E9411079C01209FC001219FAE
:10031000900D309F900D112460E074E00E94830BDB
:1003200070934B0160934A0120914601309147013F
:1003300080914801909149012817390711F4FF2055
:1003400059F1309349012093480183EE91E060E038
:1003500071E00E94240683EE91E060EA4AE050E0FA
:100360000E94A10583EE91E063E071E00E94240603
:10037000609146017091470183EE91E04AE050E0C0
:100380000E94900583EE91E065E071E00E942406F2
:1003900083EE91E00E94E10420914A0130914B01EB
:1003A00080914C0190914D012817390711F4FF20DD
:1003B00059F130934D0120934C0183EE91E060E0C0
:1003C00071E00E94240683EE91E061EA4AE050E089
:1003D0000E94A10583EE91E063E071E00E94240693
:1003E00060914A0170914B0183EE91E04AE050E048
:1003F0000E94900583EE91E065E071E00E94240682
:1004000083EE91E00E94E1041F910F91FF90089507
:100410001F9383EE91E00E94D903182F83EE91E0A1
:10042000612F4AE050E00E94B305123A29F01F3ACA
:1004300039F01930D1F407C081E00E94680115C07D
:100440000E94290112C083EE91E00E94D903682F17
:1004500088E592E00E94C60788E592E069E00E9484
:10046000830888E592E00E94C6081F91089582E5FE
:1004700091E00E94290B882329F080E00E94680106
:100480000E94290183EE91E00E94A803892B11F0BC
:100490000E94080288E592E00E94D007892B11F0A3
:1004A0000E94C90010924201809145018823B9F051
:1004B0000E946F06209143013091440140E050E0DA
:1004C000621B730B840B950B653F710581059105CC
:1004D00030F00E946F0670934401609343010895C9
:1004E0000F931F9384E061E00E94720708E512E019
:1004F000C8016AE00E94D50887E060E00E943307E7
:10050000C8016EE870E00E943108C80161EA70E03D
:100510000E94360883EE91E040E052EC61E070E02A
:100520000E9421030E94A7001F910F910895089532
:100530001F920F920FB60F9211242F933F934F9358
:100540008F939F93EF93FF938091C00082FD1DC016
:100550004091C60020919B0130919C012F5F3F4F3D
:100560002F73307080919D0190919E01281739075B
:1005700071F0E0919B01F0919C01E55AFE4F4083A0
:1005800030939C0120939B0102C08091C600FF9193
:10059000EF919F918F914F913F912F910F900FBEAF
:1005A0000F901F901895E091EF01F091F001E05C41
:1005B000FF4F8191919120813181821B930B8F7329
:1005C0009070892B11F00E94970208951F920F924C
:1005D0000FB60F9211242F933F938F939F93EF9316
:1005E000FF932091DF013091E0018091E101909132
:1005F000E2012817390731F48091C1008F7D809383
:10060000C10014C0E091E101F091E201E156FE4F1A
:1006100020818091E1019091E20101968F739070A9
:100620009093E2018093E1012093C600FF91EF9146
:100630009F918F913F912F910F900FBE0F901F9020
:100640001895AF92BF92DF92EF92FF920F931F9394
:10065000CF93DF93EC017A018B01DD24403081EEF2
:10066000580780E0680780E0780711F0DD24D39414
:1006700091E0A92EB12CEC89FD89DD2069F0C5013E
:1006800008A002C0880F991F0A94E2F7808360E0F7
:1006900079E08DE390E005C0108260E874E88EE1B7
:1006A00090E0A80197010E94960B215030404040F5
:1006B0005040569547953795279580E1203038076B
:1006C00020F0DD2011F0DD24D6CFE889F9893083D0
:1006D000EA89FB89208319A2EE89FF89408121E004
:1006E00030E0C9010C8C02C0880F991F0A94E2F710
:1006F000482B4083EE89FF894081C9010D8C02C0DF
:10070000880F991F0A94E2F7482B4083EE89FF89EE
:100710004081C9010E8C02C0880F991F0A94E2F72C
:10072000482B4083EE89FF8980810F8C02C0220F05
:10073000331F0A94E2F7209528232083DF91CF917D
:100740001F910F91FF90EF90DF90BF90AF900895B1
:10075000DC011C96ED91FC911D97E05CFF4F21910F
:10076000319180819181281B390B2F733070C90121
:100770000895DC011C96ED91FC911D97E05CFF4F04
:1007800020813181E054F040DF01AE5BBF4F8D919D
:100790009C9111972817390719F42FEF3FEF07C0E5
:1007A0008D919C91E80FF91F8081282F30E0C901BD
:1007B0000895DC011C96ED91FC911D97E05CFF4FC4
:1007C00020813181E054F040DF01AE5BBF4F8D915D
:1007D0009C9111972817390719F42FEF3FEF10C09C
:1007E0008D919C911197E80FF91F20818D919C911B
:1007F000119701968F73907011969C938E9330E0B1
:10080000C9010895DC0191968C919197882339F064
:100810005496ED91FC915597808186FFF9CF919682
:100820001C920895CF93DF93EC01EE85FF85E05C89
:10083000FF4F20813181E054F0402F5F3F4F2F73F5
:100840003070DF01AE5BBF4F8D919C9111972817DF
:100850003907D1F3E05CFF4F80819181E054F04093
:10086000E80FF91F6083EE85FF85E05CFF4F318361
:100870002083EE89FF89208181E090E00F8C02C007
:10088000880F991F0A94E2F7282B208381E089A31F
:10089000EC89FD8980818064808381E090E0DF9134
:1008A000CF9108951092E6011092E50188EE93E051
:1008B000A0E0B0E08093E7019093E801A093E90104
:1008C000B093EA0185E291E09093E4018093E30123
:1008D0008BE591E09093F0018093EF018FE991E037
:1008E0009093F2018093F10185EC90E09093F401F4
:1008F0008093F30184EC90E09093F6018093F501EE
:1009000080EC90E09093F8018093F70181EC90E007
:100910009093FA018093F90182EC90E09093FC01AE
:100920008093FB0186EC90E09093FE018093FD01A3
:1009300084E08093FF0183E08093000287E080934E
:10094000010285E08093020281E080930302089512
:10095000CF93DF930E94D6060E947002C3EDD2E0CF
:100960000E9437022097E1F30E94D302F9CFCF9281
:10097000DF92EF92FF920F931F93CF93DF937C014F
:100980006B018A01C0E0D0E00FC0D6016D916D010E
:10099000D701ED91FC910190F081E02DC7010995FF
:1009A000C80FD91F015010400115110571F7CE0174
:1009B000DF91CF911F910F91FF90EF90DF90CF903B
:1009C0000895EF92FF920F931F938C01DC01ED913C
:1009D000FC910190F081E02D6DE009957C01D8013A
:1009E000ED91FC910190F081E02DC8016AE009953C
:1009F0009C012E0D3F1DC9011F910F91FF90EF909B
:100A00000895CF93DF93EC016115710519F420E08F
:100A100030E00FC0DB010D900020E9F71197A61B15
:100A2000B70BE881F9810280F381E02DAD010995D2
:100A30009C01C901DF91CF9108954F925F927F92FF
:100A40008F929F92AF92BF92CF92DF92EF92FF92DE
:100A50000F931F93DF93CF93CDB7DEB7A1970FB658
:100A6000F894DEBF0FBECDBF2C01742ECB01223017
:100A700008F42AE019A231E2C32ED12CCC0EDD1EDF
:100A8000822E9924AA24BB24672D752FA5019401D9
:100A90000E94960B79018A01C801B701A501940152
:100AA0000E94640B472D461B0894C108D1084A30A8
:100AB00014F4405D01C0495CF6014083E114F10487
:100AC0000105110521F07E2C5F2DC801DDCFC2018B
:100AD000B6010E940105A1960FB6F894DEBF0FBEC5
:100AE000CDBFCF91DF911F910F91FF90EF90DF90DD
:100AF000CF90BF90AF909F908F907F905F904F90DE
:100B00000895DC012115310541F4ED91FC9101902E
:100B1000F081E02D642F099508950E941D05089528
:100B2000EF92FF920F931F939A017B0100E010E078
:100B3000B801A7010E9481051F910F91FF90EF90CE
:100B40000895EF92FF920F931F939A01E62EFF24D0
:100B500000E010E0B801A7010E9481051F910F91EC
:100B6000FF90EF900895CF92DF92EF92FF920F9354
:100B70001F936C01E62E9A01FF2400E010E0B801FB
:100B8000A7010E9481058C01C6010E94E104080FA3
:100B9000191FC8011F910F91FF90EF90DF90CF9028
:100BA0000895CF92DF92EF92FF920F931F93CF930E
:100BB000DF93EC016A017B012115310541F4E881E5
:100BC000F9810190F081E02D642F09951FC02A3032
:100BD0003105D1F477FF17C0E881F9810190F081E8
:100BE000E02D6DE209958C0144275527BA014C1977
:100BF0005D096E097F09CE012AE00E941D0598015A
:100C0000280F391F04C02AE00E941D059C01C9015C
:100C1000DF91CF911F910F91FF90EF90DF90CF90D8
:100C20000895EF92FF920F931F937B019A01002783
:100C3000F7FC0095102FB801A7010E94D1051F9164
:100C40000F91FF90EF9008950E94010508951F9263
:100C50000F920FB60F9211242F933F938F939F9370
:100C6000AF93BF938091090290910A02A0910B0269
:100C7000B0910C0230910D020196A11DB11D232FE0
:100C80002D5F2D3720F02D570196A11DB11D20930A
:100C90000D028093090290930A02A0930B02B09375
:100CA0000C028091050290910602A0910702B0917A
:100CB00008020196A11DB11D8093050290930602C2
:100CC000A0930702B0930802BF91AF919F918F91BB
:100CD0003F912F910F900FBE0F901F9018958FB7D7
:100CE000F8942091090230910A0240910B02509130
:100CF0000C028FBFB901CA0108959B01AC017FB7F7
:100D0000F8948091050290910602A0910702B0919B
:100D1000080266B5A89B05C06F3F19F00196A11D9A
:100D2000B11D7FBFBA2FA92F982F8827860F911D3D
:100D3000A11DB11D62E0880F991FAA1FBB1F6A95F4
:100D4000D1F7BC012DC0FFB7F894809105029091B6
:100D50000602A0910702B0910802E6B5A89B05C063
:100D6000EF3F19F00196A11DB11DFFBFBA2FA92FAA
:100D7000982F88278E0F911DA11DB11DE2E0880FCD
:100D8000991FAA1FBB1FEA95D1F7861B970B885E98
:100D90009340C8F2215030404040504068517C4F51
:100DA000211531054105510571F60895789484B5F2
:100DB000826084BD84B5816084BD85B5826085BD57
:100DC00085B5816085BDEEE6F0E08081816080833D
:100DD000E1E8F0E010828081826080838081816020
:100DE0008083E0E8F0E0808181608083E1EBF0E0E7
:100DF000808184608083E0EBF0E08081816080838B
:100E0000EAE7F0E080818460808380818260808373
:100E10008081816080838081806880831092C1009E
:100E20000895982F8E3008F09E50977080911D0184
:100E30008295880F880F807C892B80937C0080911D
:100E40007A00806480937A0080917A0086FDFCCFDE
:100E50002091780040917900942F80E030E0282B99
:100E6000392BC9010895CF93DF93482F50E0CA0171
:100E700086569F4FFC0134914A575F4FFA01849187
:100E8000882369F190E0880F991FFC01E859FF4F12
:100E9000A591B491FC01EE58FF4FC591D491662302
:100EA00051F42FB7F8948C91932F909589238C93BC
:100EB000888189230BC0623061F42FB7F8948C913C
:100EC000932F909589238C938881832B88832FBFC0
:100ED00006C09FB7F8948C91832B8C939FBFDF91B2
:100EE000CF910895482F50E0CA0182559F4FFC01D1
:100EF0002491CA0186569F4FFC0194914A575F4F37
:100F0000FA013491332309F440C0222351F12330F4
:100F100071F0243028F42130A1F0223011F514C0F2
:100F20002630B1F02730C1F02430D9F404C08091CC
:100F300080008F7703C0809180008F7D8093800038
:100F400010C084B58F7702C084B58F7D84BD09C081
:100F50008091B0008F7703C08091B0008F7D809327
:100F6000B000E32FF0E0EE0FFF1FEE58FF4FA5910A
:100F7000B4912FB7F894662321F48C91909589232E
:100F800002C08C91892B8C932FBF089581E08093B0
:100F9000530260933002109251021092520208954F
:100FA00020912F0230E080912E02281B3109C901C7
:100FB000089540912E0280912F02481718F02FEFCC
:100FC0003FEF0AC0E42FF0E0E25FFD4F8081282F61
:100FD00030E04F5F40932E02C9010895E0912E0248
:100FE00080912F02E81718F0EFEFFFEF06C0F0E056
:100FF000E25FFD4F8081E82FF0E0CF010895089572
:10100000AC01209156023091570221153105E1F0D3
:1010100090912E0280912F029817B0F090E008C0B6
:10102000FA01EA0FFB1F8081A25FBD4F8C939F5F87
:10103000A92FB0E0A617B7079CF310922E02609379
:101040002F02CB01F90109950895E0915402F09126
:101050005502309729F010925102109252020995D0
:101060000895709357026093560208957093550245
:1010700060935402089510925B0210925A0288EE17
:1010800093E0A0E0B0E080935C0290935D02A093B7
:101090005E02B0935F0285E391E0909359028093E2
:1010A00058020895CF92DF92EF92FF920F931F9311
:1010B000CF93DF937C016B018A01809153028823D7
:1010C000A1F0C0E0D0E00DC0D701ED91FC91D601B8
:1010D000AC0FBD1F0190F081E02DC7016C91099507
:1010E0002196C017D10780F304C0CB01642F0E9462
:1010F0004209C801DF91CF911F910F91FF90EF90AE
:10110000DF90CF900895DF93CF930F92CDB7DEB7E6
:10111000FC016983809153028823C9F080915202B7
:10112000803238F081E090E09383828320E030E0E9
:1011300015C080915102E82FF0E0EF5CFD4F9981DE
:1011400090838F5F809351028093520205C0CE013D
:10115000019661E00E94420921E030E0C9010F9050
:10116000CF91DF9108950F93062F8091300261E3B4
:1011700072E04091520221E00E94ED08109251026B
:1011800010925202109253020F91089561E00E9452
:10119000B308089510922E0210922F02109251025D
:1011A000109252020E94F80A08950F931F938C0127
:1011B000862F0E94E90885E298E00E94620980E09B
:1011C00098E00E945D09C8010E94CA081F910F9112
:1011D0000895880F8093BA0008950F931F93582F96
:1011E000122F413210F081E04AC0809164028823BE
:1011F000E1F782E080936402009366028FEF8093B0
:10120000D10210928C0240938D02ACE6B2E0FB0159
:1012100002C081918D938E2F861B8417D0F310927C
:10122000650280916502550F852B80936502809140
:101230006702813041F410926702809165028093C9
:10124000BB0085EC01C085EE8093BC00112321F02A
:10125000809164028230E1F38091D1028F3F11F4DA
:1012600080E00DC08091D102803211F482E007C08D
:101270008091D102803311F084E001C083E01F919E
:101280000F910895482F613210F081E00895809108
:101290006402843011F082E008956093AF02AEE8FA
:1012A000B2E0842F9C01F90102C081918D938E2FB1
:1012B000841B8617D0F380E0089590936B0280938F
:1012C0006A020895909369028093680208951F92BC
:1012D0000F920FB60F9211242F933F934F935F936A
:1012E0006F937F938F939F93AF93BF93EF93FF93EE
:1012F0008091B90090E0887F90708036910509F464
:10130000F2C081369105CCF58832910509F47BC095
:1013100089329105B4F48031910509F46FC08131AF
:1013200091053CF4009709F447C1089709F04FC1B3
:1013300065C08831910509F466C0809709F047C1FE
:1013400082C08034910509F4A4C08134910544F42D
:101350008033910509F482C0C89709F038C189C06B
:101360008035910509F489C08835910509F496C046
:101370008834910509F02BC1AEC08839910509F474
:1013800013C189399105ECF48837910509F4ABC094
:10139000893791054CF48836910509F4A4C080374B
:1013A000910509F014C19FC08838910509F4FCC06B
:1013B0008039910509F49DC08038910509F007C175
:1013C00098C0803B910509F4C6C0813B91054CF45F
:1013D000803A910509F49FC0883A910509F0F7C059
:1013E000BAC0803C910509F4E3C0883C910509F43A
:1013F000DFC0883B910509F0EAC0C2C08091650258
:101400008093BB00CFC090918C0280918D02981781
:1014100068F490918C02E92FF0E0E459FD4F80814F
:101420008093BB009F5F90938C02BCC0809166024A
:10143000882309F44BC085ED8093BC008091BC00EB
:1014400084FDFCCFC2C080E28093D10285ED809301
:10145000BC008091BC0084FDFCCFB7C080E38093CA
:10146000D10285ED8093BC008091BC0084FDFCCF4F
:10147000ACC088E38093D1029BC080918C02909194
:10148000BB00E82FF0E0E459FD4F90838F5F80931D
:101490008C0290918C0280918D0282C080918C028E
:1014A0009091BB00E82FF0E0E459FD4F90838F5FEF
:1014B00080938C0280916602882341F085ED8093B1
:1014C000BC008091BC0084FDFCCF7FC081E0809394
:1014D000670284EA6EC085ED8093BC008091BC00F9
:1014E00084FDFCCF72C083E0809364021092D0022E
:1014F00059C08091D002803208F056C08091D0024D
:101500009091BB00E82FF0E0E055FD4F90838F5F96
:101510008093D00247C08091D002803230F4E091B5
:10152000D002F0E0E055FD4F108285ED8093BC00C5
:101530008091BC0084FDFCCF109264026091D002C7
:10154000E0916A02F0916B0280EB92E070E0099505
:101550001092D0022DC084E0809364021092AE02FB
:101560001092AF02E0916802F091690209958091B2
:10157000AF02882329F481E08093AF0210928E029B
:101580009091AE02E92FF0E0E257FD4F8081809309
:10159000BB009F5F9093AE029091AE028091AF022C
:1015A000981710F485EC01C085E88093BC000FC04B
:1015B00085EC8093BC0009C01092D10285ED809328
:1015C000BC008091BC0084FDFCCF10926402FF91AE
:1015D000EF91BF91AF919F918F917F916F915F91AB
:1015E0004F913F912F910F900FBE0F901F90189524
:1015F0001092640281E0809366021092670282E199
:1016000061E00E94720783E161E00E947207E9EBEA
:10161000F0E080818E7F808380818D7F808388E46D
:101620008093B80085E48093BC0008950F931F93C6
:101630008C01FC01108245835683678370870E946A
:101640006F06F80161837283838394831F910F91E6
:101650000895EF92FF920F931F93CF93DF93EC01C6
:101660000E946F06E980FA800B811C812D813E81EA
:101670004F8158856E197F09800B910B6217730794
:101680008407950710F480E018C021153105410545
:10169000510519F08881882339F00E946F0669830B
:1016A0007A838B839C8308C02E0D3F1D401F511FE2
:1016B00029833A834B835C8381E0DF91CF911F9133
:1016C0000F91FF90EF900895629FD001739FF001FA
:1016D000829FE00DF11D649FE00DF11D929FF00DC2
:1016E000839FF00D749FF00D659FF00D9927729FF9
:1016F000B00DE11DF91F639FB00DE11DF91FBD0184
:10170000CF011124089597FB092E07260AD077FDF3
:1017100004D02ED006D000201AF4709561957F4F2A
:101720000895F6F7909581959F4F0895A1E21A2E9E
:10173000AA1BBB1BFD010DC0AA1FBB1FEE1FFF1F75
:10174000A217B307E407F50720F0A21BB30BE40BC5
:10175000F50B661F771F881F991F1A9469F760950C
:101760007095809590959B01AC01BD01CF010895C6
:10177000AA1BBB1B51E107C0AA1FBB1FA617B707B7
:1017800010F0A61BB70B881F991F5A95A9F78095D3
:101790009095BC01CD010895EE0FFF1F0590F491C7
:0817A000E02D0994F894FFCF3D
:1017A8005E2C002C002C7C005468652074656D70DC
:1017B80065726174757265206973200003010E11EA
:1017C8000C000000001204B704A803D903B90302EF
:1017D800040000000083085208D007D907EE07FF6D
:0217E8000700F8
:00000001FF
